:03000000020006F5
:03005F0002000399
:030003000200D91F
:2000620075B1677E007F01EE24FFFCEF34FFFD8C068D07EC4D70F0E5B130E7FB75B288228F
:20008200759850758920758DDCD28E438E10438780D29943A4012275FFDE75FFAD1200621E
:2000A20012008243E10443E34022AF8210990280FB8F992210980280FB8599821200AC8551
:2000C2009982222098057582FF800BC2988599821200AC859982221200997582201200ACA9
:2000E20012012574ADC0E07407C0E07480C0E01201921581158115811200B620B10820B579
:200102000512012C80DD30B10330B50620B10830B50512014280CC30B1C930B5C612015849
:2001220080C12253A72243B0222274D0C0E07407C0E07480C0E012019215811581158122EB
:2001420074F0C0E07407C0E07480C0E0120192158115811581227411C0E07408C0E074802C
:0C016200C0E01201921581158115812268
:2007AD0050726573732061206B657920746F20636865636B2074686520696E7075747320D0
:2007CD000D0A004E65697468657220696E707574206973206469676974616C206C6F77204A
:2007ED000D0A004F6E6C79206F6E6520696E707574206973206469676974616C206C6F7715
:20080D00200D0A00426F746820696E7075747320617265206469676974616C206C6F77205C
:03082D000D0A00B1
:06003500E478FFF6D8FD9F
:200013007900E94400601B7A0090083B780175AF00E493F2A308B8000205AFD9F4DAF27532
:02003300AFFF1D
:20003B007800E84400600A790175AF00E4F309D8FC7800E84400600C7900900001E4F0A3B4
:04005B00D8FCD9FAFA
:20016E00C0098581091200ACD0092285823185833285F033E4F52EF52FF530850834900124
:20018E006E020269C009858109E50924FBFF8F34E4F52EF52FF530E50924FBF88631088635
:0D01AE003208863390016E120269D00922DA
:2001BB00AF82C024C025C0261201C88007C022C0238F8222158115811581052CE4B52C0230
:2001DB00052D22AF8274302FFF24C6500A74072FFF3000034307208F820201BBE582FFC42A
:2001FB00540FF582C0071201DED007740F5FF5820201DE85820A85270B85280C85290D8580
:20021B002A0EAA2B750F20EA2AFAE50E235401FF8A064EFAE50B250BF50BE50C33F50CE598
:20023B000D33F50DE50E33F50EC3EA950A4008EAC3950AFA430B01E50F14FF8F0F70C885AD
:20025B000B27850C28850D29850E2A8A2B22858222858323852E24852F25853026E4F52C65
:20027B00F52DAD31AE32AF338D828E838FF012078DFC74012DF531E43EF5328F33ECFF7032
:20029B000302076EBF25028003020766C201C202C203C204C205C206C207C208753500759E
:2002BB0036007537FFAA31AB32AE338A828B838EF012078DFFA3AA82AB838A318B328E3336
:2002DB00BF25078F821201BB8098BF3000402DEF24C6402874FFB53712E53675F00AA42FB6
:2002FB00FC24D0F53670C4D20280C0E53775F00AA4FC8F05ED2C24D0F53780AFBF2E0A74EE
:20031B00FFB537A775370080A2BF6100400CEF248540075307DFD2008002C200BF20028067
:20033B006DBF2B028063BF2D028059BF42028063BF43028068BF440302050CBF46030205A5
:20035B0022BF48030202C6BF490302050CBF4A030202C6BF4C028040BF4F03020513BF5091
:20037B00030204A1BF5302805ABF54030202C6BF5503020518BF580302051DBF5A03020256
:20039B00C6020526D2010202C6D2030202C6D2040202C6D2060202C6D2070202C630060AEE
:2003BB00E53414F9893487078011E53424FEFE8E348E018705098706198D078F821201BBE8
:2003DB0002052FE53424FDFE8E348E01870409870509870619198C278D288E298C828D831E
:2003FB008EF0120775AD82AE8374FFB537028D37200126C3ED95365020E536C39DF536AECB
:20041B00368E041EEC6010758220C006C0051201BBD005D00680EA8E36AE37852782852876
:20043B00838529F012078DFCFF602F8E041EC374808CF063F08095F050208F82C006C00509
:20045B001201BBD005D006AA27AB28AC290ABA00010B8A278B288C2980C120010302052F0B
:20047B00C3ED9536400302052FE536C39DF536AE368E041EEC700302052D758220C00612B1
:20049B0001BBD00680EBE53424FDFC8C348C01870209870309870419198A278B288C29AC1A
:2004BB0029BC800040047F438014BC600040047F50800BBC400040047F4980027F588F82F6
:2004DB00C0071201BB75823A1201BB7582301201BB7582781201BBD007BF4902800BBF50C0
:2004FB000280068528821201F78527821201F78023D20575350A801C753508801775350A21
:20051B008012753510800DD20880098F821201BB80028E3630085CE53424FCFE8E348E0143
:20053B0087020987030987040987061919198A278B288C298E2A752730752808752980852A
:20055B00273985283A85293B74012539FAE4353AFCAE3B8A278C288E29853982853A838528
:20057B003BF012078DFEFF700302027D8F821201BB80CCE535700302027D75381530062D40
:20059B00E53414F9893487048C027B007C007E008A278B288C298E2A200566AA277B007CAB
:2005BB00007E008A278B288C298E2A8054300721E53424FCFE8E348E018702098703098771
:2005DB00040987061919198A278B288C298E2A8030E53424FEFE8E348E01870409870619D6
:2005FB00EE3395E0FBFA8C278E288B298A2A200510AA27AB287C007E008A278B288C298E0A
:20061B002A300522E52A30E71BC3E49527FAE49528FBE49529FCE4952AFE8A278B288C29AC
:20063B008E2A8002C205D209A9387E00752B00853582C006C00112020ED001D00620090B04
:20065B00E52BC4FCE7FB4CF7198002A72B0EB209E52745284529452A70D289388E05E5364D
:20067B007003753601200224200121ED04FEAC36C3EE9C5015758220C006C005C0041201BC
:20069B00BBD004D005D0061C80E68C3630050E75822DC0051201BBD00515368023ED602097
:2006BB0030030E75822BC0051201BBD0051536800F30040C758220C0051201BBD005153670
:2006DB00200126AE368E041EC3ED9C502F3002067B307C0080047B207C008B82C006C005C7
:2006FB001201BBD005D00680DCC3ED95365008E536C39DF536800775360080028E36A93838
:20071B008D068E051EED6026B20920090A09E7C4540FFD8D2B80078705740F5DF52B852B8A
:20073B0082C006C0011201DED001D00680D420010302027DAE368E051EED700302027D7519
:1A075B008220C0061201BBD00680EB8F821201BB02027D852C82852D832223
:0B0830003C4E4F20464C4F41543E0010
:18077500AA82AB8312078D6003A380F8C3E5829AF582E5839BF5832216
:0D00060075813B1207A9E58260030200032B
:1C078D0020F71430F6148883A88220F507E6A88375830022E280F7E49322E0227B
:0407A9007582002233
:00000001FF
