:0400000002001132B7
:03000B0002022EC0
:03006A0002000E83
:03000E000200E409
:20006D0075B1677E007F01EE24FFFCEF34FFFD8C068D07EC4D70F0E5B130E7FB75B2882284
:20008D00759850758920758DDCD28E438E10438780D29943A4012275FFDE75FFAD12006D08
:2000AD0012008D43E10443E34022AF8210990280FB8F992210980280FB8599821200B78530
:2000CD009982222098057582FF800BC2988599821200B7859982221200A47582201200B77D
:2000ED0012020F12021612021C747EC0E07408C0E07480C0E01202631581158115811200E9
:20010D00C185821274A5C0E07408C0E07480C0E0120263158115811581D28CE4F50EF50F0D
:20012D00F510F511F508F509C3E508942FE5096480948D40030201D920A6ED85080A85094F
:20014D000BE508C3950AFEE509950BFFC3EE9404EF6480948040EA30A6FD85080C85090D4C
:20016D00E50CC3950AFEE50D950BFFC374E19E74808FF063F08095F050120510E4B51002ED
:20018D000511050EE4B50EA0050F809CE50CC3950AFEE50D950BFFC3E49E74808FF063F0C5
:2001AD008095F04003020135E50CC3950AFEE50D950BFFC3EE94E1EF64809480400302017D
:2001CD0035050EE4B50E02050F020135C00EC00F74DFC0E07408C0E07480C0E0120263E539
:2001ED008124FBF581C010C01174F7C0E07408C0E07480C0E0120263E58124FBF58102000C
:20020D00F62253A6BF43A0402243A802D2AF22538EF75389F05389FCC28C758A00758C0062
:12022D0022C0E0C0D00508E4B508020509D0D0D0E0322D
:20087E00456E7465722061206B6579626F6172642063686172616374657220746F206265B3
:20089E0067696E200D0A00507573682074686520627574746F6E206173206D616E792074AB
:2008BE00696D657320617320796F75206C696B6520696E2031357365636F6E6473200D0A93
:2008DE00004E756D626572206F6620707265737365733A2025640D0A004E756D62657220F4
:2008FE006F662070726573736573206C6F6E676572207468616E2031207365633A202564DF
:03091E000D0A00BF
:06004000E478FFF6D8FD94
:20001E007900E94400601B7A0090092C780175AF00E493F2A308B8000205AFD9F4DAF27535
:02003E00AFFF12
:200046007800E84400600A790175AF00E4F309D8FC7800E84400600C7900900001E4F0A3A9
:04006600D8FCD9FAEF
:20023F00C0148581141200B7D0142285823185833285F033E4F52EF52FF53085133490021A
:20025F003F02033AC014858114E51424FBFF8F34E4F52EF52FF530E51424FBF88631088694
:0D027F003208863390023F12033AD0142259
:20028C00AF82C024C025C0261202998007C022C0238F8222158115811581052CE4B52C028C
:2002AC00052D22AF8274302FFF24C6500A74072FFF3000034307208F8202028CE582FFC486
:2002CC00540FF582C0071202AFD007740F5FF5820202AF85821585271685281785291885DE
:2002EC002A19AA2B751A20EA2AFAE519235401FF8A064EFAE5162516F516E51733F517E56F
:20030C001833F518E51933F519C3EA95154008EAC39515FA431601E51A14FF8F1A70C88578
:20032C00162785172885182985192A8A2B22858222858323852E24852F25853026E4F52C67
:20034C00F52DAD31AE32AF338D828E838FF012085EFC74012DF531E43EF5328F33ECFF708E
:20036C000302083FBF25028003020837C201C202C203C204C205C206C207C2087535007528
:20038C0036007537FFAA31AB32AE338A828B838EF012085EFFA3AA82AB838A318B328E3392
:2003AC00BF25078F8212028C8098BF3000402DEF24C6402874FFB53712E53675F00AA42F12
:2003CC00FC24D0F53670C4D20280C0E53775F00AA4FC8F05ED2C24D0F53780AFBF2E0A741C
:2003EC00FFB537A775370080A2BF6100400CEF248540075307DFD2008002C200BF20028096
:20040C006DBF2B028063BF2D028059BF42028063BF43028068BF44030205DDBF4603020502
:20042C00F3BF4803020397BF49030205DDBF4A03020397BF4C028040BF4F030205E4BF50A8
:20044C0003020572BF5302805ABF5403020397BF55030205E9BF58030205EEBF5A0302033D
:20046C00970205F7D201020397D203020397D204020397D206020397D20702039730060A60
:20048C00E53414F9893487078011E53424FEFE8E348E018705098706198D078F8212028C44
:2004AC00020600E53424FDFE8E348E01870409870509870619198C278D288E298C828D837A
:2004CC008EF0120846AD82AE8374FFB537028D37200126C3ED95365020E536C39DF536AE27
:2004EC00368E041EEC6010758220C006C00512028CD005D00680EA8E36AE378527828528D3
:20050C00838529F012085EFCFF602F8E041EC374808CF063F08095F050208F82C006C00565
:20052C0012028CD005D006AA27AB28AC290ABA00010B8A278B288C2980C120010302060095
:20054C00C3ED95364003020600E536C39DF536AE368E041EEC70030205FE758220C006123C
:20056C00028CD00680EBE53424FDFC8C348C01870209870309870419198A278B288C29AC76
:20058C0029BC800040047F438014BC600040047F50800BBC400040047F4980027F588F8224
:2005AC00C00712028C75823A12028C75823012028C75827812028CD007BF4902800BBF50A6
:2005CC000280068528821202C88527821202C88023D20575350A801C753508801775350AAB
:2005EC008012753510800DD20880098F8212028C80028E3630085CE53424FCFE8E348E01A0
:20060C0087020987030987040987061919198A278B288C298E2A7527217528097529808566
:20062C00273985283A85293B74012539FAE4353AFCAE3B8A278C288E29853982853A838556
:20064C003BF012085EFEFF700302034E8F8212028C80CCE535700302034E75384130062DFA
:20066C00E53414F9893487048C027B007C007E008A278B288C298E2A200566AA277B007CD9
:20068C00007E008A278B288C298E2A8054300721E53424FCFE8E348E01870209870309879F
:2006AC00040987061919198A278B288C298E2A8030E53424FEFE8E348E0187040987061904
:2006CC00EE3395E0FBFA8C278E288B298A2A200510AA27AB287C007E008A278B288C298E38
:2006EC002A300522E52A30E71BC3E49527FAE49528FBE49529FCE4952AFE8A278B288C29DB
:20070C008E2A8002C205D209A9387E00752B00853582C006C0011202DFD001D00620090B61
:20072C00E52BC4FCE7FB4CF7198002A72B0EB209E52745284529452A70D289388E05E5367B
:20074C007003753601200224200121ED04FEAC36C3EE9C5015758220C006C005C0041202E9
:20076C008CD004D005D0061C80E68C3630050E75822DC00512028CD00515368023ED602022
:20078C0030030E75822BC00512028CD0051536800F30040C758220C00512028CD0051536FA
:2007AC00200126AE368E041EC3ED9C502F3002067B307C0080047B207C008B82C006C005F5
:2007CC0012028CD005D00680DCC3ED95365008E536C39DF536800775360080028E36A93894
:2007EC008D068E051EED6026B20920090A09E7C4540FFD8D2B80078705740F5DF52B852BB9
:20080C0082C006C0011202AFD001D00680D420010302034EAE368E051EED700302034E75D1
:1A082C008220C00612028CD00680EB8F8212028C02034E852C82852D8322DB
:0B0921003C4E4F20464C4F41543E001E
:18084600AA82AB8312085E6003A380F8C3E5829AF582E5839BF5832272
:0D00110075814112087AE582600302000E3D
:1C085E0020F71430F6148883A88220F507E6A88375830022E280F7E49322E022A9
:04087A007582002261
:00000001FF
