:040000000200513277
:01000B0032C2
:0100130032BA
:01001B0032B2
:0100230032AA
:01002B0032A2
:01003300329A
:01003B003292
:01004300328A
:03004B0002077D2C
:1E00AA00E4F536F537F538F539F53AF53BF53CF53DF53EF53F75408475410302004E37
:03004E000205CADE
:2000C80075B1677E007F01EE24FFFCEF34FFFD8C068D07EC4D70F0E5B130E7FB75B2882229
:2000E800759850758920758DDCD28E438E10438780D29943A4012275FFDE75FFAD1200C852
:200108001200E843E10443E34022AF8210990280FB8F992210980280FB859982120112851D
:200128009982222098057582FF800BC29885998212011285998222C00F85810FE50F24FB64
:20014800F886820886830886F01214DAE5828583F045F070028062E50F24FBFF8F0BE50F80
:2001680024FBF8860808860908860A90000175F000120D6290000175F0001214DAAE827F87
:2001880000C3EF9E501FEF2401F582E43400F583E0FDBD0A0DEF2401F582E43400F583743D
:2001A8000DF00F80DC752D01752E00752F00752C008E307582C6120450D00F227527007452
:2001C800C0252740177532277533007534407531007535017582C61204CA80E375280C75E6
:2001E8002D28752E00752F40752C007530017582C61204502275322A753300753440753187
:20020800017535027582C61204CA74FFB52A05758200805F7F008F068EF005F07C017D00DE
:200228008006EC2CFCED33FDD5F0F7AA2A7B00EA5204EB5205EC4D600774312FF5828033D4
:200248000E8E07BE080040D0E52B30E0057582398021E52B30E10575822A8017E52B30E227
:2002680005758230800DE52B30E30575822380037582FF22AF82E4FDFEEF701DC006C005C9
:2002880074CEC0E07415C0E07480C0E012013F158115811581D005D006C006C0057408C031
:2002A800E0E4C0E07408C0E0E4C0E07408C0E0E4C0E07408C0E0E4C0E07408C0E0E4C0E052
:2002C80074E4C0E07415C0E07480C0E012013FE58124F3F58190A12075F007E41203EBD0AB
:2002E80005D0067F00C007C006C0051201FDAC82D005D006D0078C03BCFF028003BB2A17BF
:20030800902710E4F5F0C007C006C0051203EBD005D006D00780CEBB232AC006C00512017D
:20032800FDAC82D005D006BC2313902710E4F5F0C006C0051203EBD005D00680DD8D828E2D
:20034800830203EA8B027C00C007C006C005C004C003C002C002C00474F4C0E07415C0E0C8
:200368007480C0E012013FE58124FBF581D002D003D004D005D0068D118E1290000AC004D4
:20038800C003C002120CD5A882A983D002D003D004D007EA28F8EC39F9E824D0FDE934FF1A
:2003A800FEC007C006C005C0031201FDAC82D003D005D006D007ECB5031B902710E4F5F040
:2003C800C007C006C005C0031203EBD003D005D006D00780CC0FBF050050030202ED8D8239
:2003E8008E8322AC82AD83AEF0FF780079007A007B00C3E89CE99DEA9EEB9F500F08B800E3
:200408000909B900050ABA00E90B80E62220C7FDD2C530C3FDC2C5C2C3228582C210C3028D
:2004280080FB228582C2D2C410C30280FB2230C3FD85C282C2C32230C3FDAFC2C2C3D2C46A
:2004480010C30280FB8F8222AF82C2AFC007120415D00774FE5FF582120422852C821204DD
:20046800227F00AD307E001DBDFF011E8F037C00C3EB9DEC64808EF063F08095F0501FEF23
:20048800252DFCE4352EFDAE2F8C828D838EF01214F2F582C007120422D0070F80C5AE30B2
:2004A8007F001EBEFF011FEE252DFEEF352EFFAD2F8E828F838DF01214F2F58212042BD20E
:2004C800AF22AF82C2AFC007120415D00774FE5FF582C00712042285318212042B120415ED
:2004E800D00774014FF5821204227F00AD357E001DBDFF011E8F037C00C3EB9DEC64808E1C
:20050800F063F08095F0502ED2C2EF2532FCE43533FDAE34C007C006C005C004120436ABFF
:2005280082D004D005D006D0078C828D838EF0EB120CBA0F80B6C2C2AE357F001EBEFF0175
:200548001FEE2532FEEF3533FFAD34C007C006C00512043FAC82D005D006D0078E828F8381
:200568008DF0EC120CBAD2AF22752223752300752310752400752D22752E00752F40752C10
:200588002075300175823012045022752204752D22752E00752F40752C2375300175823A5D
:2005A80012045075226B752300752400752D22752E00752F40752C2075300175823A1204A1
:2005C80050221200FF75822012011212075A12076112076512077774F7C0E07415C0E074B1
:2005E80080C0E0120EDD15811581158120B76B7410C0E07416C0E07480C0E0120EDD15815D
:2006080015811581E549604D1207CCAE828E4AAD4CAE4DAF4E8D828E838FF07451120CBAB1
:20062800752C00854C2D854D2E854E2F7530017582E0120450754900AE4A7F00C006C0076C
:200648007418C0E07416C0E07480C0E0120EDDE58124FBF581120818800F30B70C7536CF82
:2006680075370A75EA3175FAF530B603020744E54B700302073E1207F2858242858343E524
:2006880040C39542F544E5419543F545854482854583120E46AC82AD83AEF0FFC004C00585
:2006A800C006C00790999A75F099743F120BB6AC82AD83AEF0FFE58124FCF581E4C0E0746F
:2006C800F0C0E0742CC0E07445C0E08C828D838EF0EF120DEDAC82AD83AEF0FFE58124FCD1
:2006E800F5818C828D838EF0EF120E5385823885833985421185431290000E120CD5AE828B
:20070800AF83C006C0077425C0E07416C0E07480C0E0120EDDE58124FBF581754B00AC387F
:20072800AD39E4FEFFC39CFCE49DFD74019EFEE49FFF8CEC8DFC12095E0205F420B603022E
:2007480005F47538CF75390A75EC3175FCF50205F42253A73F43B0C02275E1272275D981D3
:2007680075DAC275DCC243D84043E608D2AF2275CF93D2C622C0E0C0D030DF4075E97075CB
:20078800F900053AE4B53A02053BC3E53A940AE53B94004008754901E4F53AF53B053CE461
:2007A800B53C02053DC3E53C940AE53D94004008754B01E4F53CF53DC2DF800353D8C0D095
:2007C800D0D0E0327532507533007534407531027535027582E01204CAAF507E00AC517DD5
:2007E80000EC4EF582ED4FF583227532527533007534407531027535027582C01204CAAF46
:20080800527E00AC537D00EC4EF582ED4FF58322E54A24F540097536B175370D020937E530
:200828004A24F540030208A774D3254A4071AE4A7F00742DC39EF582E49FF583120E46ACF5
:2008480082AD83AEF0FFC004C005C006C00790A3D775F0A07441120BB6AC82AD83AEF0FF99
:20086800E58124FCF581E4C0E074F0C0E0742CC0E07445C0E08C828D838EF0EF120DEDAC10
:2008880082AD83AEF0FFE58124FCF5818C828D838EF0EF120E5385823685833702093774D5
:2008A8002DB54A097536CF75370A020937E54A24D2507074A6254A406AAE4A7F00EE24D315
:2008C800F582EF34FFF583120E46AC82AD83AEF0FFC004C005C006C00790333375F0837436
:2008E80041120BB6AC82AD83AEF0FFE58124FCF581C004C005C006C00790F00075F02C744A
:2009080045120BABAC82AD83AEF0FFE58124FCF5818C828D838EF0EF120E53858236858388
:2009280037800C74A6254A50067536ED753707C036C0377433C0E07416C0E07480C0E012BE
:200948000EDDE58124FBF58174FFC39536F5EA74FF9537F5FA22C374B4954474808545F007
:2009680063F08095F05069854282854383120E5EAC82AD83AEF0FFC004C005C006C00790AB
:20098800532675F055743F120BB6AC82AD83AEF0FFE58124FCF581E4C0E074F0C0E0742C77
:2009A800C0E07445C0E08C828D838EF0EF120DEDAC82AD83AEF0FFE58124FCF5818C828D0D
:2009C800838EF0EF120E53858238858339020B2EC3E54494B4E5456480948050638542829F
:2009E800854383120E5EAC82AD83AEF0FFC004C005C006C00790532675F055743F120BB6CC
:200A0800AC82AD83AEF0FFE58124FCF581C004C005C006C00790F00075F02C7445120BAB2F
:200A2800AC82AD83AEF0FFE58124FCF5818C828D838EF0EF120E53858238858339020B2EFE
:200A4800C3744C9544747F8545F063F08095F05068854282854383120E5EAC82AD83AEF067
:200A6800FFC004C005C006C00790532675F055743F120BB6AC82AD83AEF0FFE58124FCF59A
:200A880081E4C0E074F0C0E0742CC0E07445C0E08C828D838EF0EF120DEDAC82AD83AEF019
:200AA800FFE58124FCF5818C828D838EF0EF120E53858238858339806DC3E544944CE545D2
:200AC8006480947F5060854282854383120E5EAC82AD83AEF0FFC004C005C006C007905361
:200AE8002675F055743F120BB6AC82AD83AEF0FFE58124FCF581C004C005C006C00790F0FB
:200B08000075F02C7445120BABAC82AD83AEF0FFE58124FCF5818C828D838EF0EF120E53C6
:200B2800858238858339C374B19538740D953950087538B175390D8011C3E53894EDE539A8
:200B4800940750067538ED753907C040C0417451C0E07416C0E07480C0E0120EDDE58124A2
:200B6800FBF581C042C0437468C0E07416C0E07480C0E0120EDDE58124FBF581C038C039D4
:200B8800747EC0E07416C0E07480C0E0120EDDE58124FBF58174FFC39538F5EC74FF9539E0
:030BA800F5FC2237
:2015CE000A54797065206469676974733B20656E6420772F2300202020202025632563255D
:2015EE00632563256300256300456D62656464656420436F6E74726F6C2053747566660AA5
:20160E000D0053532031206F6E0052616E6765723A2025640A0D00436F6D706173733A2032
:20162E0025640A0D004472697665206D6F746F722070756C73657769647468203D20256442
:20164E000D0A00446573697265642068656164696E67203D2025640D0A0041637475616C3E
:20166E002068656164696E67203D2025640D0A005374656572696E6720736572766F20702F
:11168E00756C73657769647468203D2025640D0A0055
:0B0BAB00A8811818C6B2E7C6020DEDC5
:200BB600120C59BC0003020E8BEF60FA30D502B2D1E583B4FF03020EA1E582B4FF03020E7F
:200BD600A1258340072482400B020E8B2483145003020EA1F582EA8DF0A4A8F0EA8EF0A4FE
:200BF60028F8E435F0F9EB8DF0A428E935F0F9E433CA8FF0A429F9EA35F0FAEBF88EF0A44E
:200C160029F9EA35F0FAE433FBEC8DF0A429F9EA35F0FAE43BFBE88FF0A42AFAEB35F0FBF5
:200C3600E433CCFD8EF0A42AFAEB35F0FBE43CFCED8FF0A42BFBEC35F0FC20E703120C875F
:030C5600020E6A21
:200C5900AA82AB83A2F73392D1F5826002D2F7ACF0E58124F9F8E6FD08E6FE0886F008E6FE
:0E0C7900A2F73392D5F5836002D2F7AFF022D6
:06008000E478FFF6D8FD54
:200C87007804EC7011E58224F8500AF582E4C9CACBFCD8EF22EC7820058220E713D582016C
:130CA70022C3E933F9EA33FAEB33FBEC33FCD8EA1582227A
:20005E007900E94400601B7A009016AA785175AF00E493F2A308B8000205AFD9F4DAF2751A
:02007E00AFFFD2
:1B0CBA0020F71130F6138883A88220F509F6A8837583002280FEF280F5F02239
:1D0CD500E5828511F0A4C582C0F08512F0A4D0F025F0C5838511F0A42583F58322C6
:200CF200C00F85810FC082058105810581E50F24FBF8A90F0909E6F70809E6F70809E6F79C
:200D1200A80F080886820886830886F01214F2FAA31214F2FBA31214F2FF74012AFCE43B27
:200D3200FD8F06A80F080886820886830886F0EC120CBAA3ED120CBAA3EE120CBA8A828B85
:200D5200838FF0A80F08E6120CBA850F81D00F2285820C85830D85F00E75600C7561007515
:200D72006240850863850964850A65850B66900CF2120FB4AE82AF83AB0CAC0DAD0E8B82F6
:200D92008C838DF0E4120CBA8E828F8322C00F85810FE50F24F8FF8F66E50F24FBFF8F60CC
:200DB200756100756240E50F24F8F88663088664088665900CF2120FB4AE82AF83E50F2481
:1B0DD200FBF886030886040886058B828C838DF0E4120CBA8E828F83D00F22ED
:200086007800E84400600A790175AF00E4F309D8FC7850E84400600C7901900001E4F0A318
:0400A600D8FCD9FAAF
:200DED00120C597900E583B58202800D50031214C0E583C3958212154EE5D0C465D020E129
:200E0D0017EA2DFAEB3EFBEC3FFC5009740112154EEC4480FC020E6AC3EA9DFAEB9EFBEC35
:190E2D009FFC500FC3E499F9E49AFAE49BFBE49CFCB2D1120C87020E6A69
:0D0E4600AC83AB827A007900748E02151720
:0B0E53007F8E121597F58385F0822238
:0C0E5E00E4AC83AB82FAF9748E021544F8
:200E6A00B98003EA13B34010EA2401FAE43BFBE43CFC50047C800582BC000EBB000BBA00CC
:200E8A0008E4F5F0F583F58222A2D1E582138CF092F78B838A8222E4F583F58275F080F48C
:0F0EAA00A2D11322E4F583F58275F0C0747F2284
:200EB900C00F85810F120112D00F2285826385836485F065E4F560F561F562851066900EE0
:200ED900B9020FB4C00F85810FE50F24FBFF8F66E4F560F561F562E50F24FBF88663088628
:0D0EF90064088665900EB9120FB4D00F2268
:200F0600AF82C056C057C058120F138007C054C0558F8222158115811581055EE4B55E0220
:200F2600055F22AF8274302FFF24C6500A74072FFF3000034307208F82020F06E582FFC446
:200F4600540FF582C007120F29D007740F5FF582020F29858211855912855A13855B1485C3
:200F66005C15AA5D751620EA2AFAE515235401FF8A064EFAE5122512F512E51333F513E5A4
:200F86001433F514E51533F515C3EA95114008EAC39511FA431201E51614FF8F1670C88516
:200FA600125985135A85145B85155C8A5D22858254858355856056856157856258E4F55E35
:200FC600F55FAD63AE64AF658D828E838FF01214F2FC74012DF563E43EF5648F65ECFF700A
:200FE600030214B9BF250280030214B1C201C202C203C204C205C206C207C2087567007564
:2010060068007569FFAA63AB64AE658A828B838EF01214F2FFA3AA82AB838A638B648E65DB
:20102600BF25078F82120F068098BF3000402DEF24C6402874FFB56912E56875F00AA42FA0
:20104600FC24D0F56870C4D20280C0E56975F00AA4FC8F05ED2C24D0F56980AFBF2E0A74FF
:20106600FFB569A775690080A2BF6100400CEF248540075307DFD2008002C200BF200280AB
:201086006DBF2B028063BF2D028059BF42028063BF43028068BF4403021257BF46030212E8
:2010A6006DBF4803021011BF4903021257BF4A03021011BF4C028040BF4F0302125EBF508C
:2010C600030211ECBF5302805ABF5403021011BF5503021263BF5803021268BF5A0302108F
:2010E60011021271D201021011D203021011D204021011D206021011D20702101130060A36
:20110600E56614F9896687078011E56624FEFE8E668E018705098706198D078F82120F066E
:2011260002127AE56624FDFE8E668E01870409870509870619198C598D5A8E5B8C828D8373
:201146008EF01214DAAD82AE8374FFB569028D69200126C3ED95685020E568C39DF568AE06
:20116600688E041EEC6010758220C006C005120F06D005D00680EA8E68AE69855982855ACB
:2011860083855BF01214F2FCFF602F8E041EC374808CF063F08095F050208F82C006C0050D
:2011A600120F06D005D006AA59AB5AAC5B0ABA00010B8A598B5A8C5B80C120010302127AD6
:2011C600C3ED9568400302127AE568C39DF568AE688E041EEC7003021278758220C00612E1
:2011E6000F06D00680EBE56624FDFC8C668C01870209870309870419198A598B5A8C5BAC6F
:201206005BBC800040047F438014BC600040047F50800BBC400040047F4980027F588F826B
:20122600C007120F0675823A120F06758230120F06758278120F06D007BF4902800BBF5003
:20124600028006855A82120F42855982120F428023D20575670A801C756708801775670A1C
:201266008012756710800DD20880098F82120F0680028E6830085CE56624FCFE8E668E01CA
:2012860087020987030987040987061919198A598B5A8C5B8E5C75599F755A16755B8085F7
:2012A600596B855A6C855B6D7401256BFAE4356CFCAE6D8A598C5A8E5B856B82856C838514
:2012C6006DF01214F2FEFF7003020FC88F82120F0680CCE5677003020FC8756A1C30062DD0
:2012E600E56614F9896687048C027B007C007E008A598B5A8C5B8E5C200566AA597B007CF5
:20130600007E008A598B5A8C5B8E5C8054300721E56624FCFE8E668E0187020987030987EC
:20132600040987061919198A598B5A8C5B8E5C8030E56624FEFE8E668E0187040987061951
:20134600EE3395E0FBFA8C598E5A8B5B8A5C200510AA59AB5A7C007E008A598B5A8C5B8EEF
:201366005C300522E55C30E71BC3E49559FAE4955AFBE4955BFCE4955CFE8A598B5A8C5B92
:201386008E5C8002C205D209A96A7E00755D00856782C006C001120F59D001D00620090B8C
:2013A600E55DC4FCE7FB4CF7198002A75D0EB209E559455A455B455C70D2896A8E05E56865
:2013C6007003756801200224200121ED04FEAC68C3EE9C5015758220C006C005C004120FF2
:2013E60006D004D005D0061C80E68C6830050E75822DC005120F06D00515688023ED602037
:2014060030030E75822BC005120F06D0051568800F30040C758220C005120F06D005156801
:20142600200126AE688E041EC3ED9C502F3002067B307C0080047B207C008B82C006C0053C
:20144600120F06D005D00680DCC3ED95685008E568C39DF568800775680080028E68A96A5A
:201466008D068E051EED6026B20920090A09E7C4540FFD8D5D80078705740F5DF55D855D9C
:2014860082C006C001120F29D001D00680D4200103020FC8AE688E051EED7003020FC87586
:1A14A6008220C006120F06D00680EB8F82120F06020FC8855E82855F83225D
:0B169F003C4E4F20464C4F41543E0093
:1A14C000E582C583F582A2D133A2D592D11392D5ECCFFCEBCEFBEACDFA22B4
:1814DA00AA82AB831214F26003A380F8C3E5829AF582E5839BF5832232
:0D00510075816D121591E582600302004E6D
:1C14F20020F71430F6148883A88220F507E6A88375830022E280F7E49322E02209
:20150E00FCABF0AA83A982749EF582C2D1EC30E716D2D1E9F42401F9EAF43400FAEBF434DC
:0D152E0000FBECF43400FC120C87020E6A86
:13153B00FCABF0AA83A982749EC2D1F582120C87020E6A73
:20154E006040F82582500274FFF582E824F8501ECCCBCAF9E4CC24F85014CBCAF9E4CB24A5
:20156E00F8500BCAF9E4CA24F8500379002224086010F8C3EC13FCEB13FBEA13FAE913F958
:03158E00D8F1226F
:04159100758200223D
:201595007F9E1215BC30D103020E8BC3EF9582500974FFF5F0F583F58222790012154E8995
:0715B500828A838BF0EC2217
:1215BC00AA82AB83A2F73392D1F5826002D2F7ACF02234
:00000001FF
