:03000000020006F5
:03005F0002000399
:030003000200D91F
:2000620075B1677E007F01EE24FFFCEF34FFFD8C068D07EC4D70F0E5B130E7FB75B288228F
:20008200759850758920758DDCD28E438E10438780D29943A4012275FFDE75FFAD1200621E
:2000A20012008243E10443E34022AF8210990280FB8F992210980280FB8599821200AC8551
:2000C2009982222098057582FF800BC2988599821200AC859982221200997582201200ACA9
:2000E20074D3C0E07407C0E07480C0E01201B81581158115811200B6AF82BF31067D127EDF
:2001020000800DBF32067D0E7E0180047D007E00C006C005C005C0067405C0E07408C0E085
:200122007480C0E01201B8E58124FBF581741BC0E07408C0E07480C0E01201B8158115818D
:200142001581D005D0067C007F00C3ED9CEE64808FF063F08095F040878C037A00C007C015
:2001620006C005C004C003C002C003C002742FC0E07408C0E07480C0E01201B8E58124F9A3
:12018200F581D004D005D006D0070CBC00BC0F80B922B1
:2007D3000D0A20656E746572203120746F20636F756E7420746F203138206F7220322074A1
:2007F3006F20636F756E7420746F20323730200D0A000A20636F756E742076616C7565208B
:2008130069732025752020000A0A20446563696D616C202020686578200A0D002575202056
:07083300202578200A0D00CA
:06003500E478FFF6D8FD9F
:200013007900E94400601B7A00900845780175AF00E493F2A308B8000205AFD9F4DAF27528
:02003300AFFF1D
:20003B007800E84400600A790175AF00E4F309D8FC7800E84400600C7900900001E4F0A3B4
:04005B00D8FCD9FAFA
:20019400C0098581091200ACD0092285823185833285F033E4F52EF52FF5308508349001FE
:2001B4009402028FC009858109E50924FBFF8F34E4F52EF52FF530E50924FBF886310886C3
:0D01D4003208863390019412028FD0092268
:2001E100AF82C024C025C0261201EE8007C022C0238F8222158115811581052CE4B52C02E4
:20020100052D22AF8274302FFF24C6500A74072FFF3000034307208F820201E1E582FFC4DD
:20022100540FF582C007120204D007740F5FF58202020485820A85270B85280C85290D850B
:200241002A0EAA2B750F20EA2AFAE50E235401FF8A064EFAE50B250BF50BE50C33F50CE572
:200261000D33F50DE50E33F50EC3EA950A4008EAC3950AFA430B01E50F14FF8F0F70C88587
:200281000B27850C28850D29850E2A8A2B22858222858323852E24852F25853026E4F52C3F
:2002A100F52DAD31AE32AF338D828E838FF01207B3FC74012DF531E43EF5328F33ECFF70E6
:2002C10003020794BF2502800302078CC201C202C203C204C205C206C207C208753500752C
:2002E10036007537FFAA31AB32AE338A828B838EF01207B3FFA3AA82AB838A318B328E33EA
:20030100BF25078F821201E18098BF3000402DEF24C6402874FFB53712E53675F00AA42F69
:20032100FC24D0F53670C4D20280C0E53775F00AA4FC8F05ED2C24D0F53780AFBF2E0A74C7
:20034100FFB537A775370080A2BF6100400CEF248540075307DFD2008002C200BF20028041
:200361006DBF2B028063BF2D028059BF42028063BF43028068BF4403020532BF4603020559
:2003810048BF48030202ECBF4903020532BF4A030202ECBF4C028040BF4F03020539BF50AD
:2003A100030204C7BF5302805ABF54030202ECBF550302053EBF5803020543BF5A03020298
:2003C100EC02054CD2010202ECD2030202ECD2040202ECD2060202ECD2070202EC30060ABE
:2003E100E53414F9893487078011E53424FEFE8E348E018705098706198D078F821201E19C
:20040100020555E53424FDFE8E348E01870409870509870619198C278D288E298C828D83D1
:200421008EF012079BAD82AE8374FFB537028D37200126C3ED95365020E536C39DF536AE7E
:20044100368E041EEC6010758220C006C0051201E1D005D00680EA8E36AE3785278285282A
:20046100838529F01207B3FCFF602F8E041EC374808CF063F08095F050208F82C006C005BD
:200481001201E1D005D006AA27AB28AC290ABA00010B8A278B288C2980C120010302055599
:2004A100C3ED95364003020555E536C39DF536AE368E041EEC7003020553758220C006123F
:2004C10001E1D00680EBE53424FDFC8C348C01870209870309870419198A278B288C29ACCE
:2004E10029BC800040047F438014BC600040047F50800BBC400040047F4980027F588F82D0
:20050100C0071201E175823A1201E17582301201E17582781201E1D007BF4902800BBF5001
:2005210002800685288212021D85278212021D8023D20575350A801C753508801775350AAC
:200541008012753510800DD20880098F821201E180028E3630085CE53424FCFE8E348E01F7
:2005610087020987030987040987061919198A278B288C298E2A75273A75280875298085FA
:20058100273985283A85293B74012539FAE4353AFCAE3B8A278C288E29853982853A838502
:2005A1003BF01207B3FEFF70030202A38F821201E180CCE53570030202A375381530062D82
:2005C100E53414F9893487048C027B007C007E008A278B288C298E2A200566AA277B007C85
:2005E100007E008A278B288C298E2A8054300721E53424FCFE8E348E01870209870309874B
:20060100040987061919198A278B288C298E2A8030E53424FEFE8E348E01870409870619AF
:20062100EE3395E0FBFA8C278E288B298A2A200510AA27AB287C007E008A278B288C298EE3
:200641002A300522E52A30E71BC3E49527FAE49528FBE49529FCE4952AFE8A278B288C2986
:200661008E2A8002C205D209A9387E00752B00853582C006C001120234D001D00620090BB8
:20068100E52BC4FCE7FB4CF7198002A72B0EB209E52745284529452A70D289388E05E53627
:2006A1007003753601200224200121ED04FEAC36C3EE9C5015758220C006C005C004120196
:2006C100E1D004D005D0061C80E68C3630050E75822DC0051201E1D00515368023ED602025
:2006E10030030E75822BC0051201E1D0051536800F30040C758220C0051201E1D0051536FE
:20070100200126AE368E041EC3ED9C502F3002067B307C0080047B207C008B82C006C005A0
:200721001201E1D005D00680DCC3ED95365008E536C39DF536800775360080028E36A938EB
:200741008D068E051EED6026B20920090A09E7C4540FFD8D2B80078705740F5DF52B852B64
:2007610082C006C001120204D001D00680D42001030202A3AE368E051EED70030202A37580
:1A0781008220C0061201E1D00680EB8F821201E10202A3852C82852D83228B
:0B083A003C4E4F20464C4F41543E0006
:18079B00AA82AB831207B36003A380F8C3E5829AF582E5839BF58322CA
:0D00060075813B1207CFE582600302000305
:1C07B30020F71430F6148883A88220F507E6A88375830022E280F7E49322E02255
:0407CF00758200220D
:00000001FF
