:0400000002001132B7
:03000B000201F0FF
:0D006A00E4F508F509F50AF50BF50CF50DA8
:0300810002000E6C
:03000E000200FBF2
:2000840075B1677E007F01EE24FFFCEF34FFFD8C068D07EC4D70F0E5B130E7FB75B288226D
:2000A400759850758920758DDCD28E438E10438780D29943A4012275FFDE75FFAD120084DA
:2000C4001200A443E10443E34022AF8210990280FB8F992210980280FB8599821200CE85EB
:2000E4009982222098057582FF800BC2988599821200CE859982221200BB1201C91201D950
:200104001201DF7582201200CE74BEC0E0740AC0E07480C0E012046D15811581158130A059
:200124000F120330120336120328D2B7C28C80EE20A076E4F50AF50B74C6C0E0740AC0E089
:200144007480C0E012046D158115811581750E0020A0FDD28CD2B712020185820FE510B5C6
:200164000F0812020185820F80F3850F10850F8212020E050E74F6250E50D574D5C0E074B8
:200184000AC0E07480C0E012046D158115811581C00AC00B74E8C0E0740AC0E07480C0E095
:2001A40012046DE58124FBF58174FDC0E0740AC0E07480C0E012046D15811581158130A0E5
:2001C400FD0201222253A7FC43A7F843B00353A6FE43A0012243A802D2AF22438E085389C7
:2001E400F0438901C28CE4F58AF58C22C0E0C0D00508E4B508020509D0D0D0E03212034322
:20020400751903751A00120A8422AF82E4F50CF50DC007120328D007EF705412032DE4F537
:2002240008F509C3E5089451E5099401502A20B01030B10D050CE4B50C02050D12032380D2
:20024400E220B00330B10C30B00330B10630B0D330B1D012031E80CBE50C450D6008050A92
:20026400E4B50A02050B12032812033002031DBF0153120333E4F508F509C3E5089451E56D
:20028400099401502A30B01020B10D050CE4B50C02050D12032380E220B00330B10C20B080
:2002A4000320B10630B0D330B1D012031E80CBE50C450D6008050AE4B50A02050B120328D2
:2002C4001203368054BF0251120339E4F508F509C3E5089451E5099401502A20B01020B179
:2002E4000D050CE4B50C02050D12032380E230B00320B10C20B00320B10630B0D320B1D0CB
:2003040012031E80CBE50C450D6008050AE4B50A02050B12032812033E22C2B3D2B422D24B
:1F032400B3C2B422C2B3C2B422C2B522D2B522C2B622D2B622C2B5C2B622D2B5D2B6229A
:200ABE0053746172740D0A0047616D6520626567696E73210D0A0047616D652069732066AD
:200ADE00696E69736865640D0A004E756D62657220636F72726563743A2025640D0A005236
:1A0AFE00657365742067616D6520746F20706C617920616761696E0D0A0063
:0A007700751301E4F514F515F516F4
:2003430085131985141A85151B85161C904E6D75F0C6744112038EAC82AD83AEF0FF743954
:200363002CF51374303DF514E43EF515E43FF516AC15AD168C82747F5DF58322AE82AF8324
:0B0383008E138F1475150075160022F4
:06004000E478FFF6D8FD94
:20001E007900E94400601B7A00900B23780175AF00E493F2A308B8000205AFD9F4DAF2753C
:02003E00AFFF12
:20038E00AAF0FBE5828519F0A4FCADF0E5838519F0A42DFDE435F0FEE582851AF0A42DFDF9
:2003AE00E5F03EFEE433FFEA8519F0A42EFEE5F03FFFE583851AF0A42EFEE5F03FFFE5826C
:2003CE00851BF0A42EFEE5F03FFFEB8519F0A42FFFEA851AF0A42FFFE583851BF0A42FFF3C
:0E03EE00E582851CF0A42F8EF08D838C822278
:2003FC00E519451A60467A01E51925E0F519E51A334012F51AE5829519E583951A40030A46
:20041C0080E6C3E51A13F51AE51913F519C3E5829519F5F0E583951A4005F58385F082C30C
:0D043C00E51A13F51AE51913F519DAE12296
:200046007800E84400600A790175AF00E4F309D8FC7800E84400600C7900900001E4F0A3A9
:04006600D8FCD9FAEF
:20044900C0188581181200CED0182285823185833285F033E4F52EF52FF5308517349004E5
:2004690049020544C018858118E51824FBFF8F34E4F52EF52FF530E51824FBF88631088662
:0D04890032088633900449120544D0182231
:20049600AF82C024C025C0261204A38007C022C0238F8222158115811581052CE4B52C0274
:2004B600052D22AF8274302FFF24C6500A74072FFF3000034307208F82020496E582FFC46E
:2004D600540FF582C0071204B9D007740F5FF5820204B985821985271A85281B85291C85AA
:2004F6002A1DAA2B751E20EA2AFAE51D235401FF8A064EFAE51A251AF51AE51B33F51BE543
:200516001C33F51CE51D33F51DC3EA95194008EAC39519FA431A01E51E14FF8F1E70C88548
:200536001A27851B28851C29851D2A8A2B22858222858323852E24852F25853026E4F52C4B
:20055600F52DAD31AE32AF338D828E838FF0120A68FC74012DF531E43EF5328F33ECFF7076
:2005760003020A49BF25028003020A41C201C202C203C204C205C206C207C2087535007504
:2005960036007537FFAA31AB32AE338A828B838EF0120A68FFA3AA82AB838A318B328E337A
:2005B600BF25078F821204968098BF3000402DEF24C6402874FFB53712E53675F00AA42FFA
:2005D600FC24D0F53670C4D20280C0E53775F00AA4FC8F05ED2C24D0F53780AFBF2E0A7410
:2005F600FFB537A775370080A2BF6100400CEF248540075307DFD2008002C200BF2002808A
:200616006DBF2B028063BF2D028059BF42028063BF43028068BF44030207E7BF46030207E8
:20063600FDBF48030205A1BF49030207E7BF4A030205A1BF4C028040BF4F030207EEBF5062
:200656000302077CBF5302805ABF54030205A1BF55030207F3BF58030207F8BF5A030205FF
:20067600A1020801D2010205A1D2030205A1D2040205A1D2060205A1D2070205A130060A01
:20069600E53414F9893487078011E53424FEFE8E348E018705098706198D078F821204962C
:2006B60002080AE53424FDFE8E348E01870409870509870619198C278D288E298C828D8362
:2006D6008EF0120A50AD82AE8374FFB537028D37200126C3ED95365020E536C39DF536AE0F
:2006F600368E041EEC6010758220C006C005120496D005D00680EA8E36AE378527828528BB
:20071600838529F0120A68FCFF602F8E041EC374808CF063F08095F050208F82C006C0054D
:20073600120496D005D006AA27AB28AC290ABA00010B8A278B288C2980C120010302080A71
:20075600C3ED9536400302080AE536C39DF536AE368E041EEC7003020808758220C0061217
:200776000496D00680EBE53424FDFC8C348C01870209870309870419198A278B288C29AC5E
:2007960029BC800040047F438014BC600040047F50800BBC400040047F4980027F588F8218
:2007B600C00712049675823A120496758230120496758278120496D007BF4902800BBF506A
:2007D6000280068528821204D28527821204D28023D20575350A801C753508801775350A87
:2007F6008012753510800DD20880098F8212049680028E3630085CE53424FCFE8E348E0188
:2008160087020987030987040987061919198A278B288C298E2A75271875280B7529808561
:20083600273985283A85293B74012539FAE4353AFCAE3B8A278C288E29853982853A83854A
:200856003BF0120A68FEFF70030205588F8212049680CCE535700302055875384130062DBE
:20087600E53414F9893487048C027B007C007E008A278B288C298E2A200566AA277B007CCD
:20089600007E008A278B288C298E2A8054300721E53424FCFE8E348E018702098703098793
:2008B600040987061919198A278B288C298E2A8030E53424FEFE8E348E01870409870619F8
:2008D600EE3395E0FBFA8C278E288B298A2A200510AA27AB287C007E008A278B288C298E2C
:2008F6002A300522E52A30E71BC3E49527FAE49528FBE49529FCE4952AFE8A278B288C29CF
:200916008E2A8002C205D209A9387E00752B00853582C006C0011204E9D001D00620090B49
:20093600E52BC4FCE7FB4CF7198002A72B0EB209E52745284529452A70D289388E05E5366F
:200956007003753601200224200121ED04FEAC36C3EE9C5015758220C006C005C0041204DB
:2009760096D004D005D0061C80E68C3630050E75822DC005120496D00515368023ED602000
:2009960030030E75822BC005120496D0051536800F30040C758220C005120496D0051536D6
:2009B600200126AE368E041EC3ED9C502F3002067B307C0080047B207C008B82C006C005E9
:2009D600120496D005D00680DCC3ED95365008E536C39DF536800775360080028E36A9387C
:2009F6008D068E051EED6026B20920090A09E7C4540FFD8D2B80078705740F5DF52B852BAD
:200A160082C006C0011204B9D001D00680D4200103020558AE368E051EED700302055875A1
:1A0A36008220C006120496D00680EB8F82120496020558852C82852D8322AB
:0B0B18003C4E4F20464C4F41543E0025
:180A5000AA82AB83120A686003A380F8C3E5829AF582E5839BF583225A
:0D001100758141120ABAE582600302000EFB
:1C0A680020F71430F6148883A88220F507E6A88375830022E280F7E49322E0229D
:200A8400C2D5E58330E70DD2D5E4C39582F582E49583F583E51A30E70BE4C39519F519E477
:160AA400951AF51A1203FC30D50BE4C39582F582E49583F5832292
:040ABA00758200221F
:00000001FF
