:040000000200513277
:01000B0032C2
:0100130032BA
:01001B0032B2
:0100230032AA
:01002B0032A2
:01003300329A
:01003B003292
:01004300328A
:03004B000206604A
:1400AA00E4F536F537F538F539F53AF53BF53CF53D02004E9A
:03004E000205C0E8
:2000BE0075B1677E007F01EE24FFFCEF34FFFD8C068D07EC4D70F0E5B130E7FB75B2882233
:2000DE00759850758920758DDCD28E438E10438780D29943A4012275FFDE75FFAD1200BE66
:2000FE001200DE43E10443E34022AF8210990280FB8F992210980280FB859982120108853C
:20011E009982222098057582FF800BC29885998212010885998222C00F85810FE50F24FB78
:20013E00F886820886830886F0120E35E5828583F045F070028062E50F24FBFF8F0BE50F35
:20015E0024FBF8860808860908860A90000175F0001207A390000175F000120E35AE827F01
:20017E0000C3EF9E501FEF2401F582E43400F583E0FDBD0A0DEF2401F582E43400F5837447
:20019E000DF00F80DC752D01752E00752F00752C008E307582C6120446D00F227527007466
:2001BE00C0252740177532277533007534407531007535017582C61204C080E375280C75FA
:2001DE002D28752E00752F40752C007530017582C61204462275322A75330075344075319B
:2001FE00017535027582C61204C074FFB52A05758200805F7F008F068EF005F07C017D00F3
:20021E008006EC2CFCED33FDD5F0F7AA2A7B00EA5204EB5205EC4D600774312FF5828033DE
:20023E000E8E07BE080040D0E52B30E0057582398021E52B30E10575822A8017E52B30E231
:20025E0005758230800DE52B30E30575822380037582FF22AF82E4FDFEEF701DC006C005D3
:20027E00746DC0E0740EC0E07480C0E0120135158115811581D005D006C006C0057408C0AD
:20029E00E0E4C0E07408C0E0E4C0E07408C0E0E4C0E07408C0E0E4C0E07408C0E0E4C0E05C
:2002BE007483C0E0740EC0E07480C0E0120135E58124F3F58190A12075F007E41203E1D031
:2002DE0005D0067F00C007C006C0051201F3AC82D005D006D0078C03BCFF028003BB2A17D3
:2002FE00902710E4F5F0C007C006C0051203E1D005D006D00780CEBB232AC006C005120192
:20031E00F3AC82D005D006BC2313902710E4F5F0C006C0051203E1D005D00680DD8D828E4B
:20033E00830203E08B027C00C007C006C005C004C003C002C002C0047493C0E0740EC0E044
:20035E007480C0E0120135E58124FBF581D002D003D004D005D0068D118E1290000AC004E8
:20037E00C003C002120716A882A983D002D003D004D007EA28F8EC39F9E824D0FDE934FFE8
:20039E00FEC007C006C005C0031201F3AC82D003D005D006D007ECB5031B902710E4F5F054
:2003BE00C007C006C005C0031203E1D003D005D006D00780CC0FBF050050030202E38D8257
:2003DE008E8322AC82AD83AEF0FF780079007A007B00C3E89CE99DEA9EEB9F500F08B800ED
:2003FE000909B900050ABA00E90B80E62220C7FDD2C530C3FDC2C5C2C3228582C210C30298
:20041E0080FB228582C2D2C410C30280FB2230C3FD85C282C2C32230C3FDAFC2C2C3D2C474
:20043E0010C30280FB8F8222AF82C2AFC00712040BD00774FE5FF582120418852C821204FB
:20045E00187F00AD307E001DBDFF011E8F037C00C3EB9DEC64808EF063F08095F0501FEF37
:20047E00252DFCE4352EFDAE2F8C828D838EF0120E4DF582C007120418D0070F80C5AE3071
:20049E007F001EBEFF011FEE252DFEEF352EFFAD2F8E828F838DF0120E4DF582120421D2CD
:2004BE00AF22AF82C2AFC00712040BD00774FE5FF582C00712041885318212042112040B1F
:2004DE00D00774014FF5821204187F00AD357E001DBDFF011E8F037C00C3EB9DEC64808E30
:2004FE00F063F08095F0502ED2C2EF2532FCE43533FDAE34C007C006C005C00412042CAB14
:20051E0082D004D005D006D0078C828D838EF0EB1206FB0F80B6C2C2AE357F001EBEFF0144
:20053E001FEE2532FEEF3533FFAD34C007C006C005120435AC82D005D006D0078E828F8395
:20055E008DF0EC1206FBD2AF22752223752300752310752400752D22752E00752F40752CDF
:20057E002075300175823012044622752204752D22752E00752F40752C2375300175823A71
:20059E0012044675226B752300752400752D22752E00752F40752C2075300175823A1204B5
:2005BE0046221200F575822012010812064712064B12065A7496C0E0740EC0E07480C0E0E8
:2005DE00120852158115811581E54160301206AFAE828E42AD45AE46AF478D828E838FF0D7
:2005FE0074511206FB752C0085452D85462E85472F7530017582E0120446754100E5436062
:20061E00C81206D5AE828E447F00C006C00774AFC0E0740EC0E07480C0E0120852E581248A
:20063E00FBF58175430080A12275E1272275D98175DAC243D84043E608D2AF2275CF93D2D9
:20065E00C622C0E0C0D030DF4075E90075F9700538E4B538020539C3E538940AE53994005B
:20067E004008754101E4F538F539053AE4B53A02053BC3E53A940AE53B9400400875430195
:20069E00E4F53AF53BC2DF800353D8C0D0D0D0E03275324975330075344075310275350293
:2006BE007582E01204C0AF497E00AC4A7D00EC4EF582ED4FF5832275324B7533007534407C
:1D06DE007531027535027582C01204C0AF4B7E00AC4C7D00EC4EF582ED4FF58322AA
:200E6D000A54797065206469676974733B20656E6420772F230020202020202563256325C5
:200E8D00632563256300256300456D62656464656420436F6E74726F6C2053747566660A0D
:100EAD000D00436F6D706173733A2025640A0D0058
:06008000E478FFF6D8FD54
:20005E007900E94400601B7A00900EC8785175AF00E493F2A308B8000205AFD9F4DAF27504
:02007E00AFFFD2
:1B06FB0020F71130F6138883A88220F509F6A8837583002280FEF280F5F022FE
:1D071600E5828511F0A4C582C0F08512F0A4D0F025F0C5838511F0A42583F583228A
:20073300C00F85810FC082058105810581E50F24FBF8A90F0909E6F70809E6F70809E6F760
:20075300A80F080886820886830886F0120E4DFAA3120E4DFBA3120E4DFF74012AFCE43BED
:20077300FD8F06A80F080886820886830886F0EC1206FBA3ED1206FBA3EE1206FB8A828B99
:20079300838FF0A80F08E61206FB850F81D00F2285820C85830D85F00E75590C755A0075AD
:2007B3005B4085085C85095D850A5E850B5F900733120929AE82AF83AB0CAC0DAD0E8B8233
:2007D3008C838DF0E41206FB8E828F8322C00F85810FE50F24F8FF8F5FE50F24FBFF8F5964
:2007F300755A00755B40E50F24F8F8865C08865D08865E900733120929AE82AF83E50F24BE
:1B081300FBF886030886040886058B828C838DF0E41206FB8E828F83D00F2276
:200086007800E84400600A790175AF00E4F309D8FC7850E84400600C7901900001E4F0A318
:0400A600D8FCD9FAAF
:20082E00C00F85810F120108D00F2285825C85835D85F05EE4F559F55AF55B85105F9008B2
:20084E002E020929C00F85810FE50F24FBFF8F5FE4F559F55AF55BE50F24FBF8865C0886F8
:0D086E005D08865E90082E120929D00F2229
:20087B00AF82C04FC050C0511208888007C04DC04E8F82221581158115810557E4B5570275
:20089B00055822AF8274302FFF24C6500A74072FFF3000034307208F8202087BE582FFC471
:2008BB00540FF582C00712089ED007740F5FF58202089E858211855212855313855414858E
:2008DB005515AA56751620EA2AFAE515235401FF8A064EFAE5122512F512E51333F513E544
:2008FB001433F514E51533F515C3EA95114008EAC39511FA431201E51614FF8F1670C885A8
:20091B0012528513538514548515558A562285824D85834E85594F855A50855B51E4F55728
:20093B00F558AD5CAE5DAF5E8D828E838FF0120E4DFC74012DF55CE43EF55D8F5EECFF7077
:20095B0003020E2EBF25028003020E26C201C202C203C204C205C206C207C208756000751E
:20097B0061007562FFAA5CAB5DAE5E8A828B838EF0120E4DFFA3AA82AB838A5C8B5D8E5E50
:20099B00BF25078F8212087B8098BF3000402DEF24C6402874FFB56212E56175F00AA42FD2
:2009BB00FC24D0F56170C4D20280C0E56275F00AA4FC8F05ED2C24D0F56280AFBF2E0A74A6
:2009DB00FFB562A775620080A2BF6100400CEF248540075307DFD2008002C200BF2002804B
:2009FB006DBF2B028063BF2D028059BF42028063BF43028068BF4403020BCCBF4603020B13
:200A1B00E2BF4803020986BF4903020BCCBF4A03020986BF4C028040BF4F03020BD3BF50F0
:200A3B0003020B61BF5302805ABF5403020986BF5503020BD8BF5803020BDDBF5A0302096E
:200A5B0086020BE6D201020986D203020986D204020986D206020986D20702098630060ABE
:200A7B00E55F14F9895F87078011E55F24FEFE8E5F8E018705098706198D078F8212087BAE
:200A9B00020BEFE55F24FDFE8E5F8E01870409870509870619198C528D538E548C828D83BA
:200ABB008EF0120E35AD82AE8374FFB562028D62200126C3ED95615020E561C39DF561AE66
:200ADB00618E041EEC6010758220C006C00512087BD005D00680EA8E61AE62855282855312
:200AFB00838554F0120E4DFCFF602F8E041EC374808CF063F08095F050208F82C006C00551
:200B1B0012087BD005D006AA52AB53AC540ABA00010B8A528B538C5480C1200103020BEFB5
:200B3B00C3ED95614003020BEFE561C39DF561AE618E041EEC7003020BED758220C00612B2
:200B5B00087BD00680EBE55F24FDFC8C5F8C01870209870309870419198A528B538C54ACB5
:200B7B0054BC800040047F438014BC600040047F50800BBC400040047F4980027F588F8204
:200B9B00C00712087B75823A12087B75823012087B75827812087BD007BF4902800BBF50DD
:200BBB000280068553821208B78552821208B78023D20575600A801C756008801775600AF5
:200BDB008012756010800DD20880098F8212087B80028E6130085CE55F24FCFE8E5F8E010A
:200BFB0087020987030987040987061919198A528B538C548E557552BD75530E75548085A4
:200C1B00526485536585546674012564FAE43565FCAE668A528C538E548564828565838507
:200C3B0066F0120E4DFEFF700302093D8F8212087B80CCE560700302093D75631C30062DD5
:200C5B00E55F14F9895F87048C027B007C007E008A528B538C548E55200566AA527B007CB7
:200C7B00007E008A528B538C548E558054300721E55F24FCFE8E5F8E0187020987030987A8
:200C9B00040987061919198A528B538C548E558030E55F24FEFE8E5F8E018704098706190D
:200CBB00EE3395E0FBFA8C528E538B548A55200510AA52AB537C007E008A528B538C548EC0
:200CDB0055300522E55530E71BC3E49552FAE49553FBE49554FCE49555FE8A528B538C5463
:200CFB008E558002C205D209A9637E00755600856082C006C0011208CED001D00620090BCC
:200D1B00E556C4FCE7FB4CF7198002A7560EB209E55245534554455570D289638E05E5612E
:200D3B007003756101200224200121ED04FEAC61C3EE9C5015758220C006C005C004120898
:200D5B007BD004D005D0061C80E68C6130050E75822DC00512087BD00515618023ED6020F3
:200D7B0030030E75822BC00512087BD0051561800F30040C758220C00512087BD0051561C5
:200D9B00200126AE618E041EC3ED9C502F3002067B307C0080047B207C008B82C006C005D5
:200DBB0012087BD005D00680DCC3ED95615008E561C39DF561800775610080028E61A963A8
:200DDB008D068E051EED6026B20920090A09E7C4540FFD8D5680078705740F5DF556855643
:200DFB0082C006C00112089ED001D00680D420010302093DAE618E051EED700302093D75D3
:1A0E1B008220C00612087BD00680EB8F8212087B02093D85578285588322B1
:0B0EBD003C4E4F20464C4F41543E007D
:180E3500AA82AB83120E4D6003A380F8C3E5829AF582E5839BF5832288
:0D005100758166120E69E582600302004EA3
:1C0E4D0020F71430F6148883A88220F507E6A88375830022E280F7E49322E022B4
:040E6900758200226C
:00000001FF
