:03000000020006F5
:03005F0002000399
:030003000200D91F
:2000620075B1677E007F01EE24FFFCEF34FFFD8C068D07EC4D70F0E5B130E7FB75B288228F
:20008200759850758920758DDCD28E438E10438780D29943A4012275FFDE75FFAD1200621E
:2000A20012008243E10443E34022AF8210990280FB8F992210980280FB8599821200AC8551
:2000C2009982222098057582FF800BC2988599821200AC859982221200997582201200ACA9
:2000E2001200EB1200FB80FB2253A7FC43A7D843B00353A6FE43A001221201DAE582858350
:20010200F045F0701CC2B4D2B37425C0E07408C0E07480C0E012020A158115811581020165
:20012200C1D2B4C2B31201C2AE82AF83BE012BBF00281201CEAE82AF83BE011EBF001BC23D
:20014200B6D2B7743CC0E07408C0E07480C0E012020A15811581158180651201C2AE82AFE5
:2001620083BE012ABF00271201CEE5828583F045F0701BC2B7D2B6747FC0E07408C0E07407
:2001820080C0E012020A15811581158180311201C2E5828583F045F070251201CEE58285E1
:2001A20083F045F07019D2B7D2B674C6C0E07408C0E07480C0E012020A158115811581226F
:2001C20020B00590000180039000002220B10590000180039000002220A00590000180030D
:0401E2009000002267
:200825000D536C69646520737769746368206973206F6666200A000D536C6964652073777A
:2008450069746368206F6E2E2050757368627574746F6E2031206163746976617465642E10
:200865002050757368627574746F6E203220616374697661746564200A000D536C696465C8
:2008850020737769746368206F6E2E2050757368627574746F6E20312061637469766174BD
:2008A50065642E2050757368627574746F6E2032206E6F7420616374697661746564200A1E
:1508C500000D536C69646520737769746368206F6E2E200A0019
:06003500E478FFF6D8FD9F
:200013007900E94400601B7A009008E5780175AF00E493F2A308B8000205AFD9F4DAF27588
:02003300AFFF1D
:20003B007800E84400600A790175AF00E4F309D8FC7800E84400600C7900900001E4F0A3B4
:04005B00D8FCD9FAFA
:2001E600C0098581091200ACD0092285823185833285F033E4F52EF52FF5308508349001AC
:20020600E60202E1C009858109E50924FBFF8F34E4F52EF52FF530E50924FBF886310886CC
:0D022600320886339001E61202E1D0092271
:20023300AF82C024C025C0261202408007C022C0238F8222158115811581052CE4B52C023E
:20025300052D22AF8274302FFF24C6500A74072FFF3000034307208F82020233E582FFC438
:20027300540FF582C007120256D007740F5FF58202025685820A85270B85280C85290D8515
:200293002A0EAA2B750F20EA2AFAE50E235401FF8A064EFAE50B250BF50BE50C33F50CE520
:2002B3000D33F50DE50E33F50EC3EA950A4008EAC3950AFA430B01E50F14FF8F0F70C88535
:2002D3000B27850C28850D29850E2A8A2B22858222858323852E24852F25853026E4F52CED
:2002F300F52DAD31AE32AF338D828E838FF0120805FC74012DF531E43EF5328F33ECFF7041
:20031300030207E6BF250280030207DEC201C202C203C204C205C206C207C2087535007535
:2003330036007537FFAA31AB32AE338A828B838EF0120805FFA3AA82AB838A318B328E3344
:20035300BF25078F821202338098BF3000402DEF24C6402874FFB53712E53675F00AA42FC4
:20037300FC24D0F53670C4D20280C0E53775F00AA4FC8F05ED2C24D0F53780AFBF2E0A7475
:20039300FFB537A775370080A2BF6100400CEF248540075307DFD2008002C200BF200280EF
:2003B3006DBF2B028063BF2D028059BF42028063BF43028068BF4403020584BF46030205B5
:2003D3009ABF480302033EBF4903020584BF4A0302033EBF4C028040BF4F0302058BBF50BF
:2003F30003020519BF5302805ABF540302033EBF5503020590BF5803020595BF5A030203FB
:200413003E02059ED20102033ED20302033ED20402033ED20602033ED20702033E30060A28
:20043300E53414F9893487078011E53424FEFE8E348E018705098706198D078F82120233F6
:200453000205A7E53424FDFE8E348E01870409870509870619198C278D288E298C828D832D
:200473008EF01207EDAD82AE8374FFB537028D37200126C3ED95365020E536C39DF536AEDA
:20049300368E041EEC6010758220C006C005120233D005D00680EA8E36AE37852782852885
:2004B300838529F0120805FCFF602F8E041EC374808CF063F08095F050208F82C006C00518
:2004D300120233D005D006AA27AB28AC290ABA00010B8A278B288C2980C12001030205A7A2
:2004F300C3ED953640030205A7E536C39DF536AE368E041EEC70030205A5758220C0061249
:200513000233D00680EBE53424FDFC8C348C01870209870309870419198A278B288C29AC28
:2005330029BC800040047F438014BC600040047F50800BBC400040047F4980027F588F827D
:20055300C00712023375823A120233758230120233758278120233D007BF4902800BBF5063
:2005730002800685288212026F85278212026F8023D20575350A801C753508801775350AB6
:200593008012753510800DD20880098F8212023380028E3630085CE53424FCFE8E348E0152
:2005B30087020987030987040987061919198A278B288C298E2A7527DA7528087529808508
:2005D300273985283A85293B74012539FAE4353AFCAE3B8A278C288E29853982853A8385B0
:2005F3003BF0120805FEFF70030202F58F8212023380CCE53570030202F575381530062DE6
:20061300E53414F9893487048C027B007C007E008A278B288C298E2A200566AA277B007C32
:20063300007E008A278B288C298E2A8054300721E53424FCFE8E348E0187020987030987F8
:20065300040987061919198A278B288C298E2A8030E53424FEFE8E348E018704098706195D
:20067300EE3395E0FBFA8C278E288B298A2A200510AA27AB287C007E008A278B288C298E91
:200693002A300522E52A30E71BC3E49527FAE49528FBE49529FCE4952AFE8A278B288C2934
:2006B3008E2A8002C205D209A9387E00752B00853582C006C001120286D001D00620090B14
:2006D300E52BC4FCE7FB4CF7198002A72B0EB209E52745284529452A70D289388E05E536D5
:2006F3007003753601200224200121ED04FEAC36C3EE9C5015758220C006C005C004120243
:2007130033D004D005D0061C80E68C3630050E75822DC005120233D00515368023ED60202D
:2007330030030E75822BC005120233D0051536800F30040C758220C005120233D005153605
:20075300200126AE368E041EC3ED9C502F3002067B307C0080047B207C008B82C006C0054E
:20077300120233D005D00680DCC3ED95365008E536C39DF536800775360080028E36A93846
:200793008D068E051EED6026B20920090A09E7C4540FFD8D2B80078705740F5DF52B852B12
:2007B30082C006C001120256D001D00680D42001030202F5AE368E051EED70030202F57538
:1A07D3008220C006120233D00680EB8F821202330202F5852C82852D832241
:0B08DA003C4E4F20464C4F41543E0066
:1807ED00AA82AB831208056003A380F8C3E5829AF582E5839BF5832225
:0D00060075813B120821E5826003020003B2
:1C08050020F71430F6148883A88220F507E6A88375830022E280F7E49322E02202
:0408210075820022BA
:00000001FF
