:03000000020006F5
:20005F00753646753705753846753905753A0C753B00E4F53CF53D753ECD753F0A75402074
:20007F007541F9F542F543F544F545F546F547F548F549F54AF54BF54CF54DF54EF54FF560
:1E009F0050F551F552F553F554F555F556F557F558F559F55AF55BF55CF55D02000312
:030003000205BF34
:2000BD0075B1677E007F01EE24FFFCEF34FFFD8C068D07EC4D70F0E5B130E7FB75B2882234
:2000DD00759850758920758DDCD28E438E10438780D29943A4012275FFDE75FFAD1200BD68
:2000FD001200DD43E10443E34022AF8210990280FB8F992210980280FB859982120107853F
:20011D009982222098057582FF800BC29885998212010785998222C00F85810FE50F24FB7A
:20013D00F886820886830886F0120E10E5828583F045F070028062E50F24FBFF8F0BE50F5B
:20015D0024FBF8860808860908860A90000175F00012077E90000175F000120E10AE827F4C
:20017D0000C3EF9E501FEF2401F582E43400F583E0FDBD0A0DEF2401F582E43400F5837448
:20019D000DF00F80DC752D01752E00752F00752C008E307582C6120445D00F227527007468
:2001BD00C0252740177532277533007534407531007535017582C61204BF80E375280C75FC
:2001DD002D28752E00752F40752C007530017582C61204452275322A75330075344075319D
:2001FD00017535027582C61204BF74FFB52A05758200805F7F008F068EF005F07C017D00F5
:20021D008006EC2CFCED33FDD5F0F7AA2A7B00EA5204EB5205EC4D600774312FF5828033DF
:20023D000E8E07BE080040D0E52B30E0057582398021E52B30E10575822A8017E52B30E232
:20025D0005758230800DE52B30E30575822380037582FF22AF82E4FDFEEF701DC006C005D4
:20027D007448C0E0740EC0E07480C0E0120134158115811581D005D006C006C0057408C0D4
:20029D00E0E4C0E07408C0E0E4C0E07408C0E0E4C0E07408C0E0E4C0E07408C0E0E4C0E05D
:2002BD00745EC0E0740EC0E07480C0E0120134E58124F3F58190A12075F007E41203E0D059
:2002DD0005D0067F00C007C006C0051201F2AC82D005D006D0078C03BCFF028003BB2A17D5
:2002FD00902710E4F5F0C007C006C0051203E0D005D006D00780CEBB232AC006C005120194
:20031D00F2AC82D005D006BC2313902710E4F5F0C006C0051203E0D005D00680DD8D828E4E
:20033D00830203DF8B027C00C007C006C005C004C003C002C002C004746EC0E0740EC0E06B
:20035D007480C0E0120134E58124FBF581D002D003D004D005D0068D118E1290000AC004EA
:20037D00C003C0021206F1A882A983D002D003D004D007EA28F8EC39F9E824D0FDE934FF0F
:20039D00FEC007C006C005C0031201F2AC82D003D005D006D007ECB5031B902710E4F5F056
:2003BD00C007C006C005C0031203E0D003D005D006D00780CC0FBF050050030202E28D825A
:2003DD008E8322AC82AD83AEF0FF780079007A007B00C3E89CE99DEA9EEB9F500F08B800EE
:2003FD000909B900050ABA00E90B80E62220C7FDD2C530C3FDC2C5C2C3228582C210C30299
:20041D0080FB228582C2D2C410C30280FB2230C3FD85C282C2C32230C3FDAFC2C2C3D2C475
:20043D0010C30280FB8F8222AF82C2AFC00712040AD00774FE5FF582120417852C821204FE
:20045D00177F00AD307E001DBDFF011E8F037C00C3EB9DEC64808EF063F08095F0501FEF39
:20047D00252DFCE4352EFDAE2F8C828D838EF0120E28F582C007120417D0070F80C5AE3098
:20049D007F001EBEFF011FEE252DFEEF352EFFAD2F8E828F838DF0120E28F582120420D2F4
:2004BD00AF22AF82C2AFC00712040AD00774FE5FF582C00712041785318212042012040A24
:2004DD00D00774014FF5821204177F00AD357E001DBDFF011E8F037C00C3EB9DEC64808E32
:2004FD00F063F08095F0502ED2C2EF2532FCE43533FDAE34C007C006C005C00412042BAB16
:20051D0082D004D005D006D0078C828D838EF0EB1206D60F80B6C2C2AE357F001EBEFF016A
:20053D001FEE2532FEEF3533FFAD34C007C006C005120434AC82D005D006D0078E828F8397
:20055D008DF0EC1206D6D2AF22752223752300752310752400752D22752E00752F40752C05
:20057D002075300175823012044522752204752D22752E00752F40752C2375300175823A73
:20059D0012044575226B752300752400752D22752E00752F40752C2075300175823A1204B7
:2005BD0045221200F41206801206867582201201077405B55E02800302067A755E001206CC
:2005DD008A858238858339E536C39538F542E5379539F543854211854312853A82853B83BA
:2005FD001206F1AE82AF83AC3EAD3FEE2CFEEF3DFFE542C39540FCE5439541FD8C118D1268
:20061D00853C82853D83C007C0061206F1AC82AD83D006D007EC2EFEED3FFF8E448F458E1D
:20063D004E8F4F7550007551001206B0AE82AF83C006C007C04EC04FC050C051C044C045E8
:20065D00C042C043C038C0397471C0E0740EC0E07480C0E012082DE58124F1F581055E02AF
:20067D0005CE2275CF93D2C62275E125227532617533007534407531027535027582C01284
:20069D0004BFAF617E00AC627D00EC4EF582ED4FF583227532637533007534407531027522
:1906BD0035027582E01204BFAF637E00AC647D00EC4EF582ED4FF583229D
:200E48000A54797065206469676974733B20656E6420772F230020202020202563256325EA
:200E680063256325630025630048656164696E673A2025642C204572726F723A2025642C77
:200E8800204D616E75616C3A2025642C2050726F6772616D3A20256C642C2052616E67653D
:070EA8003A2025640D0A0049
:06003500E478FFF6D8FD9F
:200013007900E94400601B7A00900EBA785175AF00E493F2A308B8000205AFD9F4DAF2755D
:02003300AFFF1D
:1B06D60020F71130F6138883A88220F509F6A8837583002280FEF280F5F02223
:1D06F100E5828511F0A4C582C0F08512F0A4D0F025F0C5838511F0A42583F58322B0
:20070E00C00F85810FC082058105810581E50F24FBF8A90F0909E6F70809E6F70809E6F785
:20072E00A80F080886820886830886F0120E28FAA3120E28FBA3120E28FF74012AFCE43B81
:20074E00FD8F06A80F080886820886830886F0EC1206D6A3ED1206D6A3EE1206D68A828B2D
:20076E00838FF0A80F08E61206D6850F81D00F2285820C85830D85F00E75710C75720075C7
:20078E007340850874850975850A76850B7790070E120904AE82AF83AB0CAC0DAD0E8B822A
:2007AE008C838DF0E41206D68E828F8322C00F85810FE50F24F8FF8F77E50F24FBFF8F717E
:2007CE00757200757340E50F24F8F8867408867508867690070E120904AE82AF83E50F24B5
:1B07EE00FBF886030886040886058B828C838DF0E41206D68E828F83D00F22C1
:20003B007800E84400600A790175AF00E4F309D8FC7850E84400600C7901900001E4F0A363
:04005B00D8FCD9FAFA
:20080900C00F85810F120107D00F2285827485837585F076E4F571F572F573851077900830
:2008290009020904C00F85810FE50F24FBFF8F77E4F571F572F573E50F24FBF886740886EF
:0D08490075088676900809120904D00F2268
:20085600AF82C067C068C0691208638007C065C0668F8222158115811581056FE4B56F0217
:20087600057022AF8274302FFF24C6500A74072FFF3000034307208F82020856E582FFC4A3
:20089600540FF582C007120879D007740F5FF582020879858211856A12856B13856C1485B5
:2008B6006D15AA6E751620EA2AFAE515235401FF8A064EFAE5122512F512E51333F513E539
:2008D6001433F514E51533F515C3EA95114008EAC39511FA431201E51614FF8F1670C885CD
:2008F600126A85136B85146C85156D8A6E22858265858366857167857268857369E4F56FFE
:20091600F570AD74AE75AF768D828E838FF0120E28FC74012DF574E43EF5758F76ECFF7019
:2009360003020E09BF25028003020E01C201C202C203C204C205C206C207C2087578007575
:200956007900757AFFAA74AB75AE768A828B838EF0120E28FFA3AA82AB838A748B758E76DA
:20097600BF25078F821208568098BF3000402DEF24C6402874FFB57A12E57975F00AA42FEC
:20099600FC24D0F57970C4D20280C0E57A75F00AA4FC8F05ED2C24D0F57A80AFBF2E0A7483
:2009B600FFB57AA7757A0080A2BF6100400CEF248540075307DFD2008002C200BF20028040
:2009D6006DBF2B028063BF2D028059BF42028063BF43028068BF4403020BA7BF4603020B5D
:2009F600BDBF4803020961BF4903020BA7BF4A03020961BF4C028040BF4F03020BAEBF50CF
:200A160003020B3CBF5302805ABF5403020961BF5503020BB3BF5803020BB8BF5A03020927
:200A360061020BC1D201020961D203020961D204020961D206020961D20702096130060AE6
:200A5600E57714F9897787078011E57724FEFE8E778E018705098706198D078F8212085698
:200A7600020BCAE57724FDFE8E778E01870409870509870619198C6A8D6B8E6C8C828D838C
:200A96008EF0120E10AD82AE8374FFB57A028D7A200126C3ED95795020E579C39DF579AE38
:200AB600798E041EEC6010758220C006C005120856D005D00680EA8E79AE7A856A82856BE4
:200AD60083856CF0120E28FCFF602F8E041EC374808CF063F08095F050208F82C006C00583
:200AF600120856D005D006AA6AAB6BAC6C0ABA00010B8A6A8B6B8C6C80C1200103020BCA95
:200B1600C3ED95794003020BCAE579C39DF579AE798E041EEC7003020BC8758220C00612C1
:200B36000856D00680EBE57724FDFC8C778C01870209870309870419198A6A8B6B8C6CAC87
:200B56006CBC800040047F438014BC600040047F50800BBC400040047F4980027F588F8211
:200B7600C00712085675823A120856758230120856758278120856D007BF4902800BBF5096
:200B9600028006856B82120892856A821208928023D20575780A801C757808801775780AEC
:200BB6008012757810800DD20880098F8212085680028E7930085CE57724FCFE8E778E01F4
:200BD60087020987030987040987061919198A6A8B6B8C6C8E6D756AAF756B0E756C80852F
:200BF6006A7C856B7D856C7E7401257CFAE4357DFCAE7E8A6A8C6B8E6C857C82857D8385DD
:200C16007EF0120E28FEFF70030209188F8212085680CCE5787003020918757B1C30062D46
:200C3600E57714F9897787048C027B007C007E008A6A8B6B8C6C8E6D200566AA6A7B007C34
:200C5600007E008A6A8B6B8C6C8E6D8054300721E57724FCFE8E778E01870209870309873D
:200C7600040987061919198A6A8B6B8C6C8E6D8030E57724FEFE8E778E01870409870619A2
:200C9600EE3395E0FBFA8C6A8E6B8B6C8A6D200510AA6AAB6B7C007E008A6A8B6B8C6C8E0D
:200CB6006D300522E56D30E71BC3E4956AFAE4956BFBE4956CFCE4956DFE8A6A8B6B8C6CB0
:200CD6008E6D8002C205D209A97B7E00756E00857882C006C0011208A9D001D00620090BB6
:200CF600E56EC4FCE7FB4CF7198002A76E0EB209E56A456B456C456D70D2897B8E05E57994
:200D16007003757901200224200121ED04FEAC79C3EE9C5015758220C006C005C00412088D
:200D360056D004D005D0061C80E68C7930050E75822DC005120856D00515798023ED602032
:200D560030030E75822BC005120856D0051579800F30040C758220C005120856D005157904
:200D7600200126AE798E041EC3ED9C502F3002067B307C0080047B207C008B82C006C005E2
:200D9600120856D005D00680DCC3ED95795008E579C39DF579800775790080028E79A97B62
:200DB6008D068E051EED6026B20920090A09E7C4540FFD8D6E80078705740F5DF56E856E20
:200DD60082C006C001120879D001D00680D4200103020918AE798E051EED7003020918754F
:1A0DF6008220C006120856D00680EB8F82120856020918856F828570832216
:0B0EAF003C4E4F20464C4F41543E008B
:180E1000AA82AB83120E286003A380F8C3E5829AF582E5839BF58322D2
:0D00060075817E120E44E582600302000346
:1C0E280020F71430F6148883A88220F507E6A88375830022E280F7E49322E022D9
:040E44007582002291
:00000001FF
