:040000000200513277
:01000B0032C2
:0100130032BA
:01001B0032B2
:0100230032AA
:01002B0032A2
:01003300329A
:01003B003292
:01004300328A
:03004B000206C9E1
:1800AA00E4F544F54575465AF5477548B4F549754A8C754B0A02004E82
:03004E000205C4E4
:2000C20075B1677E007F01EE24FFFCEF34FFFD8C068D07EC4D70F0E5B130E7FB75B288222F
:2000E200759850758920758DDCD28E438E10438780D29943A4012275FFDE75FFAD1200C25E
:200102001200E243E10443E34022AF8210990280FB8F992210980280FB85998212010C852F
:200122009982222098057582FF800BC29885998212010C85998222C00F85810FE50F24FB70
:20014200F886820886830886F0121242E5828583F045F070028062E50F24FBFF8F0BE50F20
:2001620024FBF8860808860908860A90000175F000120B5690000175F000121242AE827F35
:2001820000C3EF9E501FEF2401F582E43400F583E0FDBD0A0DEF2401F582E43400F5837443
:2001A2000DF00F80DC752B01752C00752D00752A008E2E7582C612044AD00F22752500746A
:2001C200C025254017753025753100753240752F007533017582C61204C480E375260C7502
:2001E2002B26752C00752D40752A00752E017582C612044A22753028753100753240752FA9
:20020200017533027582C61204C474FFB52805758200805F7F008F068EF005F07C017D00EE
:200222008006EC2CFCED33FDD5F0F7AA287B00EA5204EB5205EC4D600774312FF5828033DC
:200242000E8E07BE080040D0E52930E0057582398021E52930E10575822A8017E52930E233
:2002620005758230800DE52930E30575822380037582FF22AF82E4FDFEEF701DC006C005D1
:200282007414C0E07413C0E07480C0E0120139158115811581D005D006C006C0057408C0F9
:2002A200E0E4C0E07408C0E0E4C0E07408C0E0E4C0E07408C0E0E4C0E07408C0E0E4C0E058
:2002C200742AC0E07413C0E07480C0E0120139E58124F3F58190A12075F007E41203E5D079
:2002E20005D0067F00C007C006C0051201F7AC82D005D006D0078C03BCFF028003BB2A17CB
:20030200902710E4F5F0C007C006C0051203E5D005D006D00780CEBB232AC006C005120189
:20032200F7AC82D005D006BC2313902710E4F5F0C006C0051203E5D005D00680DD8D828E3F
:20034200830203E48B027C00C007C006C005C004C003C002C002C004743AC0E07413C0E090
:200362007480C0E0120139E58124FBF581D002D003D004D005D0068D118E1290000AC004E0
:20038200C003C002120AC9A882A983D002D003D004D007EA28F8EC39F9E824D0FDE934FF2E
:2003A200FEC007C006C005C0031201F7AC82D003D005D006D007ECB5031B902710E4F5F04C
:2003C200C007C006C005C0031203E5D003D005D006D00780CC0FBF050050030202E78D824B
:2003E2008E8322AC82AD83AEF0FF780079007A007B00C3E89CE99DEA9EEB9F500F08B800E9
:200402000909B900050ABA00E90B80E62220C7FDD2C530C3FDC2C5C2C3228582C210C30293
:2004220080FB228582C2D2C410C30280FB2230C3FD85C282C2C32230C3FDAFC2C2C3D2C470
:2004420010C30280FB8F8222AF82C2AFC00712040FD00774FE5FF58212041C852A821204F1
:200462001C7F00AD2E7E001DBDFF011E8F037C00C3EB9DEC64808EF063F08095F0501FEF31
:20048200252BFCE4352CFDAE2D8C828D838EF012125AF582C00712041CD0070F80C5AE2E60
:2004A2007F001EBEFF011FEE252BFEEF352CFFAD2D8E828F838DF012125AF582120425D2BA
:2004C200AF22AF82C2AFC00712040FD00774FE5FF582C00712041C852F8212042512040F0D
:2004E200D00774014FF58212041C7F00AD337E001DBDFF011E8F037C00C3EB9DEC64808E2A
:20050200F063F08095F0502ED2C2EF2530FCE43531FDAE32C007C006C005C004120430AB11
:2005220082D004D005D006D0078C828D838EF0EB120AAE0F80B6C2C2AE337F001EBEFF018B
:200542001FEE2530FEEF3531FFAD32C007C006C005120439AC82D005D006D0078E828F8393
:200562008DF0EC120AAED2AF22752223752300752310752400752B22752C00752D40752A2C
:2005820020752E0175823012044A22752204752B22752C00752D40752A23752E0175823A75
:2005A20012044A75226B752300752400752B22752C00752D40752A20752E0175823A1204B7
:2005C2004A221200F912069812069F1206B21206BF1206C575820D12010C743DC0E07413C2
:2005E200C0E07480C0E0120C5F15811581158120B776E5386030120765AE828E39AD4CAE70
:200602004DAF4E8D828E838FF07451120AAE752A00854C2B854D2C854E2D752E017582E04C
:2006220012044A753800E53A603612078B858240858341E540C3954AF53EE541954BF53F8E
:20064200753A00AE397F00C006C0077445C0E07413C0E07480C0E0120C5FE58124FBF5816A
:200662001207B1120856801B30B7187534CF75350A75EA3175FAF57536CF75370A75EC31C2
:2006820075FCF5749C253940030205F1754A08754B070205F12253A73F43B0C02243A802A6
:2006A20043E608D2AF2275D10375AA8043AB012275D98175DAC275DCC243D8402275CF9324
:2006C200D2C62275E12722C0E0C0D030DF20053B74FC253B5006753801753B00053C74FCEB
:2006E200253C5006753A01753C00C2DF800353D8C0D0D0D0E032758204120753121276ACA2
:2007020082AD83AEF0FFC004C005C006C00790999A75F019743C1209AAAC82AD83AEF0FFC1
:20072200E58124FCF581C004C005C006C00790000075F07A74441209AAAC82AD83AEF0FFBE
:20074200E58124FCF5818C828D838EF0EF120BE1228582AC53AADF43AA10E5AA30E5FB8540
:200762009C8222753050753100753240752F027533027582E01204C4AF507E00AC517D00BD
:20078200EC4EF582ED4FF58322753052753100753240752F027533027582C01204C4AF526A
:2007A2007E00AC537D00EC4EF582ED4FF5832274E225394025AE397F00EE24E2F511EF341A
:2007C200FFF512900049120AC9E5828583F024CFF534740A35F0F535804AE53924E1502BA3
:2007E20074BA25394025AE397F00EE24E2F511EF34FFF512900049120AC9E5828583F0243C
:20080200CFF534740A35F0F5358019E53924B950087534B175350D800B741EB5390675345A
:20082200CF75350AC374B19534740D953550067534B175350DC3E53494EDE5359407500668
:200842007534ED75350774FFC39534F5EA74FF9535F5FA22C37408953E7487853FF063F00F
:200862008095F05016E53E253EFEE53F33FF74CF2EF536740A3FF53702090AC3E4953E74A9
:2008820080853FF063F08095F05023C3E53E9408E53F648094875016E53E253EFEE53F3371
:2008A200FF74CFC39EF536740A9FF537805AE53F30E727C374F8953E7478853FF063F0806E
:2008C20095F05016E53E253EFEE53F33FF74CFC39EF536740A9FF537802EC3E53E94F8E534
:2008E2003F648094785015E53E253EFEE53F33FF74CF2EF536740A3FF537800CE53E453FD0
:2009020070067536CF75370AC374B19536740D953750067536B175370DC3E53694EDE53749
:20092200940750067536ED7537077536CF75370A75EC3075FCF522AE82AF838E048F05C0E8
:2009420007C006C005C004120116AB82D004D005D006D007BB63048C068D07BB691FA9540B
:200962007A00E92EFEEA3FFFC3E5559EE55664808FF063F08095F05004AE55AF56BB642092
:20098200A9547A00EEC399FEEF9AFFC3EE9557EF64808558F063F08095F05004AE57AF5819
:0809A200BB759C8E828F83223D
:201314000A54797065206469676974733B20656E6420772F23002020202020256325632519
:1613340063256325630025630053746172740D0A0025640D0A00E3
:2009AA00120A4DBC0003020C0DEF60FA30D502B2D1E583B4FF03020C23E582B4FF03020C9D
:2009CA0023258340072482400B020C0D2483145003020C23F582EA8DF0A4A8F0EA8EF0A48A
:2009EA0028F8E435F0F9EB8DF0A428E935F0F9E433CA8FF0A429F9EA35F0FAEBF88EF0A45C
:200A0A0029F9EA35F0FAE433FBEC8DF0A429F9EA35F0FAE43BFBE88FF0A42AFAEB35F0FB03
:200A2A00E433CCFD8EF0A42AFAEB35F0FBE43CFCED8FF0A42BFBEC35F0FC20E703120A7B7B
:030A4A00020BECB0
:200A4D00AA82AB83A2F73392D1F5826002D2F7ACF0E58124F9F8E6FD08E6FE0886F008E60C
:0E0A6D00A2F73392D5F5836002D2F7AFF022E4
:06008000E478FFF6D8FD54
:200A7B007804EC7011E58224F8500AF582E4C9CACBFCD8EF22EC7820058220E713D582017A
:130A9B0022C3E933F9EA33FAEB33FBEC33FCD8EA15822288
:20005E007900E94400601B7A00901355785175AF00E493F2A308B8000205AFD9F4DAF27572
:02007E00AFFFD2
:1B0AAE0020F71130F6138883A88220F509F6A8837583002280FEF280F5F02247
:1D0AC900E5828511F0A4C582C0F08512F0A4D0F025F0C5838511F0A42583F58322D4
:200AE600C00F85810FC082058105810581E50F24FBF8A90F0909E6F70809E6F70809E6F7AA
:200B0600A80F080886820886830886F012125AFAA312125AFBA312125AFF74012AFCE43B03
:200B2600FD8F06A80F080886820886830886F0EC120AAEA3ED120AAEA3EE120AAE8A828BBD
:200B4600838FF0A80F08E6120AAE850F81D00F2285820C85830D85F00E75650C7566007527
:200B66006740850868850969850A6A850B6B900AE6120D36AE82AF83AB0CAC0DAD0E8B8279
:200B86008C838DF0E4120AAE8E828F8322C00F85810FE50F24F8FF8F6BE50F24FBFF8F65DE
:200BA600756600756740E50F24F8F8866808866908866A900AE6120D36AE82AF83E50F2404
:1B0BC600FBF886030886040886058B828C838DF0E4120AAE8E828F83D00F2209
:200086007800E84400600A790175AF00E4F309D8FC7850E84400600C7901900001E4F0A318
:0400A600D8FCD9FAAF
:0B0BE1007F8E12129AF58385F08222AD
:200BEC00B98003EA13B34010EA2401FAE43BFBE43CFC50047C800582BC000EBB000BBA004D
:200C0C0008E4F5F0F583F58222A2D1E582138CF092F78B838A8222E4F583F58275F080F40C
:0F0C2C00A2D11322E4F583F58275F0C0747F2204
:200C3B00C00F85810F12010CD00F2285826885836985F06AE4F565F566F56785106B900C45
:200C5B003B020D36C00F85810FE50F24FBFF8F6BE4F565F566F567E50F24FBF8866808868D
:0D0C7B006908866A900C3B120D36D00F22DE
:200C8800AF82C05BC05CC05D120C958007C059C05A8F82221581158115810563E4B56302FF
:200CA800056422AF8274302FFF24C6500A74072FFF3000034307208F82020C88E582FFC443
:200CC800540FF582C007120CABD007740F5FF582020CAB858211855E12855F138560148537
:200CE8006115AA62751620EA2AFAE515235401FF8A064EFAE5122512F512E51333F513E51B
:200D08001433F514E51533F515C3EA95114008EAC39511FA431201E51614FF8F1670C88596
:200D2800125E85135F8514608515618A622285825985835A85655B85665C85675DE4F5636F
:200D4800F564AD68AE69AF6A8D828E838FF012125AFC74012DF568E43EF5698F6AECFF7001
:200D68000302123BBF25028003021233C201C202C203C204C205C206C207C208756C0075DF
:200D88006D00756EFFAA68AB69AE6A8A828B838EF012125AFFA3AA82AB838A688B698E6ACE
:200DA800BF25078F82120C888098BF3000402DEF24C6402874FFB56E12E56D75F00AA42F98
:200DC800FC24D0F56D70C4D20280C0E56E75F00AA4FC8F05ED2C24D0F56E80AFBF2E0A7471
:200DE800FFB56EA7756E0080A2BF6100400CEF248540075307DFD2008002C200BF20028022
:200E08006DBF2B028063BF2D028059BF42028063BF43028068BF4403020FD9BF4603020FEC
:200E2800EFBF4803020D93BF4903020FD9BF4A03020D93BF4C028040BF4F03020FE0BF508E
:200E480003020F6EBF5302805ABF5403020D93BF5503020FE5BF5803020FEABF5A03020D15
:200E680093020FF3D201020D93D203020D93D204020D93D206020D93D207020D9330060A3A
:200E8800E56B14F9896B87078011E56B24FEFE8E6B8E018705098706198D078F82120C885C
:200EA800020FFCE56B24FDFE8E6B8E01870409870509870619198C5E8D5F8E608C828D835C
:200EC8008EF0121242AD82AE8374FFB56E028D6E200126C3ED956D5020E56DC39DF56DAE08
:200EE8006D8E041EEC6010758220C006C005120C88D005D00680EA8E6DAE6E855E82855FB4
:200F0800838560F012125AFCFF602F8E041EC374808CF063F08095F050208F82C006C00522
:200F2800120C88D005D006AA5EAB5FAC600ABA00010B8A5E8B5F8C6080C1200103020FFC3A
:200F4800C3ED956D4003020FFCE56DC39DF56DAE6D8E041EEC7003020FFA758220C006124F
:200F68000C88D00680EBE56B24FDFC8C6B8C01870209870309870419198A5E8B5F8C60AC57
:200F880060BC800040047F438014BC600040047F50800BBC400040047F4980027F588F82E7
:200FA800C007120C8875823A120C88758230120C88758278120C88D007BF4902800BBF5088
:200FC800028006855F82120CC4855E82120CC48023D205756C0A801C756C088017756C0A86
:200FE8008012756C10800DD20880098F82120C8880028E6D30085CE56B24FCFE8E6B8E01B8
:2010080087020987030987040987061919198A5E8B5F8C608E61755E4A755F1375608085AC
:201028005E70855F7185607274012570FAE43571FCAE728A5E8C5F8E60857082857183854E
:2010480072F012125AFEFF7003020D4A8F82120C8880CCE56C7003020D4A756F1C30062D5C
:20106800E56B14F9896B87048C027B007C007E008A5E8B5F8C608E61200566AA5E7B007C52
:20108800007E008A5E8B5F8C608E618054300721E56B24FCFE8E6B8E01870209870309874F
:2010A800040987061919198A5E8B5F8C608E618030E56B24FEFE8E6B8E01870409870619B4
:2010C800EE3395E0FBFA8C5E8E5F8B608A61200510AA5EAB5F7C007E008A5E8B5F8C608E43
:2010E80061300522E56130E71BC3E4955EFAE4955FFBE49560FCE49561FE8A5E8B5F8C60E6
:201108008E618002C205D209A96F7E00756200856C82C006C001120CDBD001D00620090B79
:20112800E562C4FCE7FB4CF7198002A7620EB209E55E455F4560456170D2896F8E05E56DBD
:201148007003756D01200224200121ED04FEAC6DC3EE9C5015758220C006C005C004120C6B
:2011680088D004D005D0061C80E68C6D30050E75822DC005120C88D005156D8023ED6020AC
:2011880030030E75822BC005120C88D005156D800F30040C758220C005120C88D005156D7A
:2011A800200126AE6D8E041EC3ED9C502F3002067B307C0080047B207C008B82C006C005B8
:2011C800120C88D005D00680DCC3ED956D5008E56DC39DF56D8007756D0080028E6DA96F3E
:2011E8008D068E051EED6026B20920090A09E7C4540FFD8D6280078705740F5DF56285620E
:2012080082C006C001120CABD001D00680D4200103020D4AAE6D8E051EED7003020D4A7582
:1A1228008220C006120C88D00680EB8F82120C88020D4A8563828564832255
:0B134A003C4E4F20464C4F41543E00EB
:18124200AA82AB8312125A6003A380F8C3E5829AF582E5839BF5832266
:0D005100758172121294E582600302004E68
:1C125A0020F71430F6148883A88220F507E6A88375830022E280F7E49322E022A3
:0B127600E4AC82FBFAF9748602128AD5
:13128100FCABF0AA83A982749EC2D1F582120A7B020BECBF
:04129400758200223D
:201298007F9E12130230D103020C0DC3EF9582500974FFF5F0F583F5822279001212BF8963
:0712B800828A838BF0EC2217
:2012BF006040F82582500274FFF582E824F8501ECCCBCAF9E4CC24F85014CBCAF9E4CB2437
:2012DF00F8500BCAF9E4CA24F8500379002224086010F8C3EC13FCEB13FBEA13FAE913F9EA
:0312FF00D8F12201
:12130200AA82AB83A2F73392D1F5826002D2F7ACF022F0
:00000001FF
