:040000000200513277
:01000B0032C2
:0100130032BA
:01001B0032B2
:0100230032AA
:01002B0032A2
:01003300329A
:01003B003292
:01004300328A
:03004B000206DBCF
:0800AA00E4F53EF53F02004EB3
:03004E000205B4F4
:2000B20075B1677E007F01EE24FFFCEF34FFFD8C068D07EC4D70F0E5B130E7FB75B288223F
:2000D200759850758920758DDCD28E438E10438780D29943A4012275FFDE75FFAD1200B27E
:2000F2001200D243E10443E34022AF8210990280FB8F992210980280FB8599821200FC8561
:200112009982222098057582FF800BC2988599821200FC85998222C00F85810FE50F24FB91
:20013200F886820886830886F012136FE5828583F045F070028062E50F24FBFF8F0BE50F02
:2001520024FBF8860808860908860A90000175F000120C5A90000175F00012136FAE827F12
:2001720000C3EF9E501FEF2401F582E43400F583E0FDBD0A0DEF2401F582E43400F5837453
:200192000DF00F80DC752B01752C00752D00752A008E2E7582C612043AD00F22752500748A
:2001B200C025254017753025753100753240752F007533017582C61204B480E375260C7522
:2001D2002B26752C00752D40752A00752E017582C612043A22753028753100753240752FC9
:2001F200017533027582C61204B474FFB52805758200805F7F008F068EF005F07C017D000F
:200212008006EC2CFCED33FDD5F0F7AA287B00EA5204EB5205EC4D600774312FF5828033EC
:200232000E8E07BE080040D0E52930E0057582398021E52930E10575822A8017E52930E243
:2002520005758230800DE52930E30575822380037582FF22AF82E4FDFEEF701DC006C005E1
:200272007479C0E07414C0E07480C0E0120129158115811581D005D006C006C0057408C0B3
:20029200E0E4C0E07408C0E0E4C0E07408C0E0E4C0E07408C0E0E4C0E07408C0E0E4C0E068
:2002B200748FC0E07414C0E07480C0E0120129E58124F3F58190A12075F007E41203D5D043
:2002D20005D0067F00C007C006C0051201E7AC82D005D006D0078C03BCFF028003BB2A17EB
:2002F200902710E4F5F0C007C006C0051203D5D005D006D00780CEBB232AC006C0051201AA
:20031200E7AC82D005D006BC2313902710E4F5F0C006C0051203D5D005D00680DD8D828E6F
:20033200830203D48B027C00C007C006C005C004C003C002C002C004749FC0E07414C0E04A
:200352007480C0E0120129E58124FBF581D002D003D004D005D0068D118E1290000AC00400
:20037200C003C002120BCDA882A983D002D003D004D007EA28F8EC39F9E824D0FDE934FF39
:20039200FEC007C006C005C0031201E7AC82D003D005D006D007ECB5031B902710E4F5F06C
:2003B200C007C006C005C0031203D5D003D005D006D00780CC0FBF050050030202D78D827B
:2003D2008E8322AC82AD83AEF0FF780079007A007B00C3E89CE99DEA9EEB9F500F08B800F9
:2003F2000909B900050ABA00E90B80E62220C7FDD2C530C3FDC2C5C2C3228582C210C302A4
:2004120080FB228582C2D2C410C30280FB2230C3FD85C282C2C32230C3FDAFC2C2C3D2C480
:2004320010C30280FB8F8222AF82C2AFC0071203FFD00774FE5FF58212040C852A82120422
:200452000C7F00AD2E7E001DBDFF011E8F037C00C3EB9DEC64808EF063F08095F0501FEF51
:20047200252BFCE4352CFDAE2D8C828D838EF0121387F582C00712040CD0070F80C5AE2E52
:200492007F001EBEFF011FEE252BFEEF352CFFAD2D8E828F838DF0121387F582120415D2AC
:2004B200AF22AF82C2AFC0071203FFD00774FE5FF582C00712040C852F821204151203FF5F
:2004D200D00774014FF58212040C7F00AD337E001DBDFF011E8F037C00C3EB9DEC64808E4A
:2004F200F063F08095F0502ED2C2EF2530FCE43531FDAE32C007C006C005C004120420AB32
:2005120082D004D005D006D0078C828D838EF0EB120BA50F80B6C2C2AE337F001EBEFF01A3
:200532001FEE2530FEEF3531FFAD32C007C006C005120429AC82D005D006D0078E828F83B3
:200552008DF0EC120BA5D2AF22752223752300752310752400752B22752C00752D40752A44
:2005720020752E0175823012043A22752204752B22752C00752D40752A23752E0175823A95
:2005920012043A75226B752300752400752B22752C00752D40752A20752E0175823A1204D7
:2005B2003A221200E91206A71206B11206C41206BA1206D11206D712057D12086E75820DA4
:2005D2001200FC74A2C0E07414C0E07480C0E0120D8C158115811581C046C047C044C04506
:2005F20074AAC0E07414C0E07480C0E0120D8CE58124F9F5811201AE120A2074BDC0E07489
:2006120014C0E07480C0E0120D8C158115811581120A2020B760120A78120788C03EC03F6E
:20063200C038C039C03AC03BC042C043C040C04174ECC0E07414C0E07480C0E0120D8CE570
:200652008124F3F5811201AEC038C039C03AC03BC04AC04BC042C043C040C041741BC0E089
:200672007415C0E07480C0E0120129E58124F3F581120934809D30B79A753ACF753B0A75E2
:2006920038CF75390A75EA3175FAF575EC3175FCF50206252253BDEF53A73F43B0C02243FE
:2006B200A80243E608D2AF2275D10375AA8043AB012275D98175DAC275DCC243D8402275CC
:2006D200CF93D2C62275E12722C0E0C0D030DF31053EE4B53E02053F0534E4B5340205353B
:2006F200C3E5349404E5359400400AE4F534F535753601F537053CE4B53C02053DC2DF80F2
:200712000353D8C0D0D0D0E0327582041207761213A3AC82AD83AEF0FFC004C005C006C0FB
:200732000790999A75F019743C120AA1AC82AD83AEF0FFE58124FCF581C004C005C006C0EC
:200752000790000075F07A7444120AA1AC82AD83AEF0FFE58124FCF5818C828D838EF0EF1A
:20077200120D0E228582AC53AADF43AA10E5AA30E5FB859C8222E4FEFFF55AF55B7B3A757E
:200792005C27F555E4F534F535C3E5349401E535940040F575305D753100753240855C2F50
:2007B2007533018B82C007C006C0031204B4D00375305D753100753240752FA87533048B72
:2007D20082C0031204B4D003D006D007AD5E7A00EDC4CAC4540F6ACA540FCA6ACA30E302A7
:2007F20044F0FDEA2EFEED3FFFAD607C00EDC4CCC4540F6CCC540FCC6CCC30E30244F0FD63
:20081200EC255AF55AED355BF55B055574E0255540030207967511207512008E828F8312D4
:2008320013C1AE82AF83751120751200855A82855B83C007C0061213C185825A85835BD078
:2008520006D007EEC39544F540EF9545F541E55AC39546F542E55B9547F543227F3A7E2703
:20087200755500E4F53CF53DC3E53C9401E53D940040F57530617531007532408E2F7533F9
:20089200018F82C007C0061204B4D006D007753061753100753240752FA87533048F82C0D4
:2008B20007C0061204B4D006D007AD627C00EDC4CCC4540F6CCC540FCC6CCC30E30244F0CB
:2008D200FDEC2544F544ED3545F545AD647C00EDC4CCC4540F6CCC540FCC6CCC30E30244B1
:2008F200F0FDEC2546F546ED3547F547055574C02555400302087575114075120085448260
:200912008545831213C18582448583457511407512008546828547831213C18582468583D6
:200932004722854011854112854882854983120BCDAE82AF8374CFC39EF538740A9FF53986
:200952007511057512008542828543831213C1858211858312854C82854D83120BCDE582CE
:200972008583F024CFF53A740A35F0F53B75110A7512008540828541831213C1120BC08589
:200992008211858312854A82854B83120BCDAE82AF83E53AC39EF53AE53B9FF53BC374B122
:2009B200953A740D953B5006753AB1753B0DC3E53A94EDE53B94075006753AED753B07C308
:2009D20074B19538740D953950067538B175390DC3E53894EDE539940750067538ED75399D
:2009F20007AC3AAD3BE4FEFFC39CFCE49DFD74019EE49F8CEA8DFAAC38AD39E4FEFFC39CB9
:200A1200FCE49DFD74019EE49F8CEC8DFC221201AE7441C0E07415C0E07480C0E012012982
:200A32001581158115811201E7AF82BFFF0280F61201E7858259AE597F00EE24D0FEEF349E
:200A5200FF8E48C54825E0C54833F549C048C049745CC0E07415C0E07480C0E0120129E5C0
:200A72008124FBF58122758204120776E58275F032A4F58285F0837511007512011213C19D
:0F0A9200AD828D077E008F4A8E4B8F4C8E4D228A
:201479000A54797065206469676974733B20656E6420772F230020202020202563256325B3
:2014990063256325630025630053746172740D0A007830203D2025642C207930203D2025CE
:2014B900640D0A005820416363656C2E202D205920416363656C2E202D20447269766520A7
:2014D9005057202D205374656572696E672050570D0A0025332E33642C20202025332E335E
:2014F900642C2020202025332E33642C2020202025332E33642C2020202025332E33640D07
:201519000A0047583D25642047593D2564204761696E3D25640D0A444D203D202564205337
:2015390053203D2025640D00456E746572207374656572696E67206761696E2076616C7516
:0D155900650D006B73203D2025640D0A0018
:200AA100120B44BC0003020D3AEF60FA30D502B2D1E583B4FF03020D50E582B4FF03020D50
:200AC10050258340072482400B020D3A2483145003020D50F582EA8DF0A4A8F0EA8EF0A409
:200AE10028F8E435F0F9EB8DF0A428E935F0F9E433CA8FF0A429F9EA35F0FAEBF88EF0A464
:200B010029F9EA35F0FAE433FBEC8DF0A429F9EA35F0FAE43BFBE88FF0A42AFAEB35F0FB0B
:200B2100E433CCFD8EF0A42AFAEB35F0FBE43CFCED8FF0A42BFBEC35F0FC20E703120B728B
:030B4100020D1989
:200B4400AA82AB83A2F73392D1F5826002D2F7ACF0E58124F9F8E6FD08E6FE0886F008E614
:0E0B6400A2F73392D5F5836002D2F7AFF022EC
:06008000E478FFF6D8FD54
:200B72007804EC7011E58224F8500AF582E4C9CACBFCD8EF22EC7820058220E713D5820182
:130B920022C3E933F9EA33FAEB33FBEC33FCD8EA15822290
:20005E007900E94400601B7A00901571785175AF00E493F2A308B8000205AFD9F4DAF27554
:02007E00AFFFD2
:1B0BA50020F71130F6138883A88220F509F6A8837583002280FEF280F5F0224F
:0D0BC000E58330E7076382FF6383FFA32214
:1D0BCD00E5828511F0A4C582C0F08512F0A4D0F025F0C5838511F0A42583F58322CF
:200BEA00C00F85810FC082058105810581E50F24FBF8A90F0909E6F70809E6F70809E6F7A5
:200C0A00A80F080886820886830886F0121387FAA3121387FBA3121387FF74012AFCE43B74
:200C2A00FD8F06A80F080886820886830886F0EC120BA5A3ED120BA5A3EE120BA58A828BD0
:200C4A00838FF0A80F08E6120BA5850F81D00F2285820C85830D85F00E75710C7572007512
:200C6A007340850874850975850A76850B77900BEA120E63AE82AF83AB0CAC0DAD0E8B8205
:200C8A008C838DF0E4120BA58E828F8322C00F85810FE50F24F8FF8F77E50F24FBFF8F71C9
:200CAA00757200757340E50F24F8F88674088675088676900BEA120E63AE82AF83E50F2490
:1B0CCA00FBF886030886040886058B828C838DF0E4120BA58E828F83D00F220C
:200086007800E84400600A790175AF00E4F309D8FC7850E84400600C7901900001E4F0A318
:0400A600D8FCD9FAAF
:200CE5007A10E4FBFCE58225E0F582E58333F583EB33FBEC33FCEB9511F5F0EC9512400611
:090D0500FCABF0438201DADD22AF
:0B0D0E007F8E1213FFF58385F0822218
:200D1900B98003EA13B34010EA2401FAE43BFBE43CFC50047C800582BC000EBB000BBA001E
:200D390008E4F5F0F583F58222A2D1E582138CF092F78B838A8222E4F583F58275F080F4DE
:0F0D5900A2D11322E4F583F58275F0C0747F22D6
:200D6800C00F85810F1200FCD00F2285827485837585F076E4F571F572F573851077900DD3
:200D880068020E63C00F85810FE50F24FBFF8F77E4F571F572F573E50F24FBF886740886C8
:0D0DA80075088676900D68120E63D00F223C
:200DB500AF82C067C068C069120DC28007C065C0668F8222158115811581056FE4B56F024F
:200DD500057022AF8274302FFF24C6500A74072FFF3000034307208F82020DB5E582FFC4DB
:200DF500540FF582C007120DD8D007740F5FF582020DD8858211856A12856B13856C148589
:200E15006D15AA6E751620EA2AFAE515235401FF8A064EFAE5122512F512E51333F513E5D4
:200E35001433F514E51533F515C3EA95114008EAC39511FA431201E51614FF8F1670C88568
:200E5500126A85136B85146C85156D8A6E22858265858366857167857268857369E4F56F99
:200E7500F570AD74AE75AF768D828E838FF0121387FC74012DF574E43EF5758F76ECFF7051
:200E950003021368BF25028003021360C201C202C203C204C205C206C207C2087578007549
:200EB5007900757AFFAA74AB75AE768A828B838EF0121387FFA3AA82AB838A748B758E7612
:200ED500BF25078F82120DB58098BF3000402DEF24C6402874FFB57A12E57975F00AA42F24
:200EF500FC24D0F57970C4D20280C0E57A75F00AA4FC8F05ED2C24D0F57A80AFBF2E0A741F
:200F1500FFB57AA7757A0080A2BF6100400CEF248540075307DFD2008002C200BF200280DB
:200F35006DBF2B028063BF2D028059BF42028063BF43028068BF4403021106BF460302118D
:200F55001CBF4803020EC0BF4903021106BF4A03020EC0BF4C028040BF4F0302110DBF5079
:200F75000302109BBF5302805ABF5403020EC0BF5503021112BF5803021117BF5A03020E2C
:200F9500C0021120D201020EC0D203020EC0D204020EC0D206020EC0D207020EC030060ACA
:200FB500E57714F9897787078011E57724FEFE8E778E018705098706198D078F82120DB5D0
:200FD500021129E57724FDFE8E778E01870409870509870619198C6A8D6B8E6C8C828D83C3
:200FF5008EF012136FAD82AE8374FFB57A028D7A200126C3ED95795020E579C39DF579AE70
:20101500798E041EEC6010758220C006C005120DB5D005D00680EA8E79AE7A856A82856B1B
:2010350083856CF0121387FCFF602F8E041EC374808CF063F08095F050208F82C006C005BA
:20105500120DB5D005D006AA6AAB6BAC6C0ABA00010B8A6A8B6B8C6C80C120010302112967
:20107500C3ED95794003021129E579C39DF579AE798E041EEC7003021127758220C0061293
:201095000DB5D00680EBE57724FDFC8C778C01870209870309870419198A6A8B6B8C6CACBF
:2010B5006CBC800040047F438014BC600040047F50800BBC400040047F4980027F588F82AD
:2010D500C007120DB575823A120DB5758230120DB5758278120DB5D007BF4902800BBF50A2
:2010F500028006856B82120DF1856A82120DF18023D20575780A801C757808801775780AC0
:201115008012757810800DD20880098F82120DB580028E7930085CE57724FCFE8E778E012B
:2011350087020987030987040987061919198A6A8B6B8C6C8E6D756A66756B15756C80850C
:201155006A7C856B7D856C7E7401257CFAE4357DFCAE7E8A6A8C6B8E6C857C82857D838578
:201175007EF0121387FEFF7003020E778F82120DB580CCE5787003020E77757B1C30062D52
:20119500E57714F9897787048C027B007C007E008A6A8B6B8C6C8E6D200566AA6A7B007CD0
:2011B500007E008A6A8B6B8C6C8E6D8054300721E57724FCFE8E778E0187020987030987D9
:2011D500040987061919198A6A8B6B8C6C8E6D8030E57724FEFE8E778E018704098706193E
:2011F500EE3395E0FBFA8C6A8E6B8B6C8A6D200510AA6AAB6B7C007E008A6A8B6B8C6C8EA9
:201215006D300522E56D30E71BC3E4956AFAE4956BFBE4956CFCE4956DFE8A6A8B6B8C6C4B
:201235008E6D8002C205D209A97B7E00756E00857882C006C001120E08D001D00620090BEC
:20125500E56EC4FCE7FB4CF7198002A76E0EB209E56A456B456C456D70D2897B8E05E5792F
:201275007003757901200224200121ED04FEAC79C3EE9C5015758220C006C005C004120D24
:20129500B5D004D005D0061C80E68C7930050E75822DC005120DB5D00515798023ED60200B
:2012B50030030E75822BC005120DB5D0051579800F30040C758220C005120DB5D0051579D8
:2012D500200126AE798E041EC3ED9C502F3002067B307C0080047B207C008B82C006C0057E
:2012F500120DB5D005D00680DCC3ED95795008E579C39DF579800775790080028E79A97B9A
:201315008D068E051EED6026B20920090A09E7C4540FFD8D6E80078705740F5DF56E856EBB
:2013350082C006C001120DD8D001D00680D4200103020E77AE798E051EED7003020E7775BE
:1A1355008220C006120DB5D00680EB8F82120DB5020E77856F828570832285
:0B1566003C4E4F20464C4F41543E00CD
:18136F00AA82AB831213876003A380F8C3E5829AF582E5839BF583220A
:0D00510075817E1213F9E582600302004EF6
:1C13870020F71430F6148883A88220F507E6A88375830022E280F7E49322E02275
:0B13A300E4AC82FBFAF974860213B779
:1313AE00FCABF0AA83A982749EC2D1F582120B72020D196A
:2013C100C2D5E58330E70DD2D5E4C39582F582E49583F583E51230E70DB2D5E4C39511F5B5
:1813E10011E49512F512120CE530D50BE4C39582F582E49583F5832273
:0413F90075820022D7
:2013FD007F9E12146730D103020D3AC3EF9582500974FFF5F0F583F5822279001214248902
:07141D00828A838BF0EC22B0
:201424006040F82582500274FFF582E824F8501ECCCBCAF9E4CC24F85014CBCAF9E4CB24D0
:20144400F8500BCAF9E4CA24F8500379002224086010F8C3EC13FCEB13FBEA13FAE913F983
:03146400D8F1229A
:12146700AA82AB83A2F73392D1F5826002D2F7ACF0228A
:00000001FF
