:0400000002001132B7
:03000B00020227C7
:03006A0002000E83
:03000E000200E409
:20006D0075B1677E007F01EE24FFFCEF34FFFD8C068D07EC4D70F0E5B130E7FB75B2882284
:20008D00759850758920758DDCD28E438E10438780D29943A4012275FFDE75FFAD12006D08
:2000AD0012008D43E10443E34022AF8210990280FB8F992210980280FB8599821200B78530
:2000CD009982222098057582FF800BC2988599821200B7859982221200A47582201200B77D
:2000ED001202111202151202071201EB743AC0E0740BC0E07480C0E01203C2158115811573
:20010D00817443C0E0740BC0E07480C0E01203C21581158115811200C185820D75820512B9
:20012D0001F585820CAE0C7F00C006C0077462C0E0740BC0E07480C0E01203C2E58124FB5E
:20014D00F581850C82120A9CAC82AD83AEF0FFC004C005C006C00790999A75F01974401239
:20016D000240AC82AD83AEF0FFE58124FCF581E4C0E0C0E0C0E07443C0E08C828D838EF082
:20018D00EF1209BDAC82AD83AEF0FFE58124FCF581C004C005C006C00790000075F07A749B
:2001AD0044120240AC82AD83AEF0FFE58124FCF5818C828D838EF0EF12034485820E8583A2
:2001CD000FC00EC00F7472C0E0740BC0E07480C0E01203C2E58124FBF58102010E2275D1E2
:2001ED000353ABFC75AA80228582AC53AADF43AA10E5AA30E5FB859C822253BDDF53A5DF7E
:20020D004390202243A88222438E085389F0438901C28C758A00758C0022C0E0C0D005080E
:13022D00E4B508020509050AE4B50A02050BD0D0D0E032C7
:200B3A005374617274200D0A00656E746572206B657920746F207265616420412F442069B3
:200B5A006E707574200D0A0041442076616C75653A202564200D0A00566F6C7461676520AF
:120B7A0076616C756520286D56293A202564200D0A00FE
:200240001202E3BC0003020370EF60FA30D502B2D1E583B4FF03020386E582B4FF030203D5
:2002600086258340072482400B0203702483145003020386F582EA8DF0A4A8F0EA8EF0A4E4
:2002800028F8E435F0F9EB8DF0A428E935F0F9E433CA8FF0A429F9EA35F0FAEBF88EF0A4CD
:2002A00029F9EA35F0FAE433FBEC8DF0A429F9EA35F0FAE43BFBE88FF0A42AFAEB35F0FB75
:2002C000E433CCFD8EF0A42AFAEB35F0FBE43CFCED8FF0A42BFBEC35F0FC20E7031203115E
:0302E00002034FC7
:2002E300AA82AB83A2F73392D1F5826002D2F7ACF0E58124F9F8E6FD08E6FE0886F008E67E
:0E030300A2F73392D5F5836002D2F7AFF02255
:06004000E478FFF6D8FD94
:200311007804EC7011E58224F8500AF582E4C9CACBFCD8EF22EC7820058220E713D58201EB
:1303310022C3E933F9EA33FAEB33FBEC33FCD8EA158222F9
:20001E007900E94400601B7A00900B97780175AF00E493F2A308B8000205AFD9F4DAF275C8
:02003E00AFFF12
:200046007800E84400600A790175AF00E4F309D8FC7800E84400600C7900900001E4F0A3A9
:04006600D8FCD9FAEF
:0B0344007F8E120AC0F58385F0822234
:20034F00B98003EA13B34010EA2401FAE43BFBE43CFC50047C800582BC000EBB000BBA00F2
:20036F0008E4F5F0F583F58222A2D1E582138CF092F78B838A8222E4F583F58275F080F4B2
:0F038F00A2D11322E4F583F58275F0C0747F22AA
:20039E00C0118581111200B7D0112285823185833285F033E4F52EF52FF5308510349003C5
:2003BE009E020499C011858111E51124FBFF8F34E4F52EF52FF530E51124FBF88631088681
:0D03DE003208863390039E120499D011223C
:2003EB00AF82C024C025C0261203F88007C022C0238F8222158115811581052CE4B52C02CC
:20040B00052D22AF8274302FFF24C6500A74072FFF3000034307208F820203EBE582FFC4C5
:20042B00540FF582C00712040ED007740F5FF58202040E85821285271385281485291585C7
:20044B002A16AA2B751720EA2AFAE516235401FF8A064EFAE5132513F513E51433F514E526
:20046B001533F515E51633F516C3EA95124008EAC39512FA431301E51714FF8F1770C88533
:20048B00132785142885152985162A8A2B22858222858323852E24852F25853026E4F52C13
:2004AB00F52DAD31AE32AF338D828E838FF0120A80FC74012DF531E43EF5328F33ECFF700A
:2004CB000302099EBF25028003020996C201C202C203C204C205C206C207C2087535007508
:2004EB0036007537FFAA31AB32AE338A828B838EF0120A80FFA3AA82AB838A318B328E330E
:20050B00BF25078F821203EB8098BF3000402DEF24C6402874FFB53712E53675F00AA42F51
:20052B00FC24D0F53670C4D20280C0E53775F00AA4FC8F05ED2C24D0F53780AFBF2E0A74BB
:20054B00FFB537A775370080A2BF6100400CEF248540075307DFD2008002C200BF20028035
:20056B006DBF2B028063BF2D028059BF42028063BF43028068BF440302073CBF460302073F
:20058B0052BF48030204F6BF490302073CBF4A030204F6BF4C028040BF4F03020743BF5067
:2005AB00030206D1BF5302805ABF54030204F6BF5503020748BF580302074DBF5A0302045A
:2005CB00F6020756D2010204F6D2030204F6D2040204F6D2060204F6D2070204F630060A60
:2005EB00E53414F9893487078011E53424FEFE8E348E018705098706198D078F821203EB84
:20060B0002075FE53424FDFE8E348E01870409870509870619198C278D288E298C828D83B9
:20062B008EF01209A5AD82AE8374FFB537028D37200126C3ED95365020E536C39DF536AE66
:20064B00368E041EEC6010758220C006C0051203EBD005D00680EA8E36AE37852782852812
:20066B00838529F0120A80FCFF602F8E041EC374808CF063F08095F050208F82C006C005E1
:20068B001203EBD005D006AA27AB28AC290ABA00010B8A278B288C2980C120010302075F75
:2006AB00C3ED9536400302075FE536C39DF536AE368E041EEC700302075D758220C006121B
:2006CB0003EBD00680EBE53424FDFC8C348C01870209870309870419198A278B288C29ACB6
:2006EB0029BC800040047F438014BC600040047F50800BBC400040047F4980027F588F82C4
:20070B00C0071203EB75823A1203EB7582301203EB7582781203EBD007BF4902800BBF50C5
:20072B000280068528821204278527821204278023D20575350A801C753508801775350A88
:20074B008012753510800DD20880098F821203EB80028E3630085CE53424FCFE8E348E01DF
:20076B0087020987030987040987061919198A278B288C298E2A75278C75280B7529808599
:20078B00273985283A85293B74012539FAE4353AFCAE3B8A278C288E29853982853A8385F6
:2007AB003BF0120A80FEFF70030204AD8F821203EB80CCE53570030204AD75381D30062D7A
:2007CB00E53414F9893487048C027B007C007E008A278B288C298E2A200566AA277B007C79
:2007EB00007E008A278B288C298E2A8054300721E53424FCFE8E348E01870209870309873F
:20080B00040987061919198A278B288C298E2A8030E53424FEFE8E348E01870409870619A3
:20082B00EE3395E0FBFA8C278E288B298A2A200510AA27AB287C007E008A278B288C298ED7
:20084B002A300522E52A30E71BC3E49527FAE49528FBE49529FCE4952AFE8A278B288C297A
:20086B008E2A8002C205D209A9387E00752B00853582C006C00112043ED001D00620090BA0
:20088B00E52BC4FCE7FB4CF7198002A72B0EB209E52745284529452A70D289388E05E5361B
:2008AB007003753601200224200121ED04FEAC36C3EE9C5015758220C006C005C004120388
:2008CB00EBD004D005D0061C80E68C3630050E75822DC0051203EBD00515368023ED602003
:2008EB0030030E75822BC0051203EBD0051536800F30040C758220C0051203EBD0051536DA
:20090B00200126AE368E041EC3ED9C502F3002067B307C0080047B207C008B82C006C00594
:20092B001203EBD005D00680DCC3ED95365008E536C39DF536800775360080028E36A938D3
:20094B008D068E051EED6026B20920090A09E7C4540FFD8D2B80078705740F5DF52B852B58
:20096B0082C006C00112040ED001D00680D42001030204ADAE368E051EED70030204AD7550
:1A098B008220C0061203EBD00680EB8F821203EB0204AD852C82852D83225B
:0B0B8C003C4E4F20464C4F41543E00B1
:1809A500AA82AB83120A806003A380F8C3E5829AF582E5839BF58322EE
:2009BD001202E330D502B2D1BF0009BC0003020393020386BC0003020370E583B4FF0BE5B0
:2009DD0082B4FF03020393020370E582B4FF03020386C395835007247F400B0203702480D4
:2009FD00145003020386F582C3ED9AEE9BEF9C40111582C3EA33F9EB33FAEC33FBE433FC0D
:200A1D008005E4CCCBCAF9C08275F019C3E99DEA9EEB9FEC9400D5F002802D400EE99DF91A
:200A3D00EA9EFAEB9FFBEC9400FCC3B3E833F8E58233F582E58333F583C3E933F9EA33FA7A
:200A5D00EB33FBEC33FC80C4B3E4F938FAE43582FBE43583FCD082500405827C80120311C2
:030A7D000203670A
:0D00110075813B120ABAE582600302000E01
:1C0A800020F71430F6148883A88220F507E6A88375830022E280F7E49322E02285
:0B0A9C00E4AC82FBFAF97486020AB099
:130AA700FCABF0AA83A982749EC2D1F58212031102034FB7
:040ABA00758200221F
:200ABE007F9E120B2830D103020370C3EF9582500974FFF5F0F583F582227900120AE589AF
:070ADE00828A838BF0EC22F9
:200AE5006040F82582500274FFF582E824F8501ECCCBCAF9E4CC24F85014CBCAF9E4CB2419
:200B0500F8500BCAF9E4CA24F8500379002224086010F8C3EC13FCEB13FBEA13FAE913F9CB
:030B2500D8F122E2
:120B2800AA82AB83A2F73392D1F5826002D2F7ACF022D2
:00000001FF
