:0400000002001132B7
:03000B000204C02C
:09006A00E4F536F537F538F539F7
:03007D0002000E70
:03000E000200F7F6
:2000800075B1677E007F01EE24FFFCEF34FFFD8C068D07EC4D70F0E5B130E7FB75B2882271
:2000A000759850758920758DDCD28E438E10438780D29943A4012275FFDE75FFAD120080E2
:2000C0001200A043E10443E34022AF8210990280FB8F992210980280FB8599821200CA85F7
:2000E0009982222098057582FF800BC2988599821200CA859982221200B712047A7582207D
:200100001200CA12048D1204931204A474D6C0E0740FC0E07480C0E01208F615811581150B
:200120008130B4111204F01204F61204FC1204DE12050280EC20B4E9D28CE4F524F5251268
:2001400004AEE58275F005A424C8F52AE435F0F52B852A82852B8312086CAC82AD83AEF05E
:20016000FFC004C005C006C00790126F75F083743A1206ADAC82AD83AEF0FFE58124FCF588
:2001800081C004C005C006C00790000075F06174431206ADAC82AD83AEF0FFE58124FCF580
:2001A000818C828D838EF0EF12087885822A85832B852A2CE52BC313C52C13C52CF52DC0A5
:2001C0002AC02B74E0C0E0740FC0E07480C0E01208F6E58124FBF581E4F522F523F536F521
:2001E00037F538F539C3E522942DE523940050051204FF80F0120502E4F526F52720B4FD67
:200200001205151204D185824F85222E85232FC200C201C202E522C3952EFEE523952FFF2A
:20022000C3EE952AEF952B40030202CEE4F528F529E5282528FEE52933EE2446F9854F822B
:20024000C001120606AD82AE83AFF0D001E5282528FBE52933FCEB2DFDEC3EFE8D828E8300
:200260008FF0120EF1FDA3120EF1FEA70509A706190528E4B528020529C3E5289403E52931
:20028000940040AD30B00C30B10930B20630B303020215D201E522C3952EFEE523952FFFF7
:2002A000C3EE952AEF952B40EC120515852232852333E522C39532FEE5239533FFC3EE956F
:2002C0002CEF952D40030202151204DE80E4852232852333E522C39532FEE5239533FFC3B8
:2002E000EE952CEF952D505312051520B3E6D20290004675F0401205225020D200E522C382
:200300009532FEE5239533FFC3EE952CEF952D50051204E380E71204E880B9D201E522C39D
:200320009532FEE5239533FFC3EE952CEF952D50051204DE80E71204E88099200205D20145
:200340001204DE3000080536E4B5360205373001080538E4B5380205391204E80526E4B5E0
:2003600026020527C3E5269408E527940050030201FDE5242524FEE52533EE243AF8A6361F
:2003800008A637E5242524FEE52533FFEE2440F8A63808A6397402B52406E4B52502801C2C
:2003A00030B4FD20B4FD0524E4B524020525C3E5249403E5259400500302013FE4F524F5F1
:2003C00025E4F522F523C3E5229496E5239400501CE52420E00512050580EB74015524FE68
:2003E0007F00BE01E1BF00DE12051580D90524E4B524020525C3E5249406E525940040C1A5
:20040000E4F524F525E5242524FEE52533EE2440F9870409870519EE243AF987060987074B
:200420001974012524FAE43525FBC004C005C006C007C002C00374F0C0E0740FC0E07480FC
:20044000C0E01208F6E58124F7F5810524E4B524020525C3E5249403E525940040A774285F
:20046000C0E07410C0E07480C0E01208F615811581158130B4FD0201212253A7E043B01F3F
:2004800053A6C053BDFD53A5FD4390022243A802D2AF22538EF75389F05389FCC28CE4F577
:2004A0008AF58C2275D10375AA8043AB012275AC0153AADF43AA10E5AA30E5FB859C8222B7
:2004C000C0E0C0D00522E4B522020523D0D0D0E032120662750E07750F00120F0D22D2A410
:2004E000C2A522C2A4D2A522C2A4C2A522C2A022D2A022C2A122D2A122C2A222D2A222C275
:20050000A322D2A3221204ED1204F31204F91204FF1204E8221204F01204F61204FC1205F4
:200520000222AD82AE83AFF0E4FBFCF50EF50FF510F5118D828E838FF0120EF1F9A3120E3F
:20054000F1FAB90106BA000330B0158D828E838FF0120EF1F9A3120EF1FA49700830B00541
:200560000BBB00010C74022DF8E43EF98F02888289838AF0120EF1F8A3120EF1F9B801065C
:20058000B9000330B11E74022DF8E43EF98F02888289838AF0120EF1F8A3120EF1F948705B
:2005A0000B30B108050EE4B50E02050F74042DF8E43EF98F02888289838AF0120EF1F8A3F2
:2005C000120EF1F9B80106B9000330B21C74042DFDE43EFE8D828E838FF0120EF1FDA31274
:2005E0000EF1FE4D700B30B2080510E4B510020511EB4C600FE50E450F6009E51045116075
:2006000003D38001C322AF82E4F552F553F554F555F556F557EF6043BF04004013C007124F
:2006200004EDD0077552017553001F1F1F1F80E5BF02004011C0071204F3D0077554017589
:2006400055001F1F80CFBF010040CAC0071204F9D0077556017557001F80BA90005275F009
:02066000402236
:200FD6000D0A53746172740D0A00576169742074696D653A2025640A0D00506C61796572F4
:200FF6002025642020207C202020202020436F72726563743A202564202020207C20202085
:2010160020496E636F72726563743A202564200A0D00416E6F746865722067616D653F0D00
:021036000A00AE
:0A007300750801E4F509F50AF50B24
:2006620085080E85090F850A10850B11904E6D75F0C674411207B1AC82AD83AEF0FF743963
:200682002CF50874303DF509E43EF50AE43FF50BAC0AAD0B8C82747F5DF58322AE82AF8344
:0B06A2008E088F09750A00750B0022FE
:2006AD00120750BC00030208A4EF60FA30D502B2D1E583B4FF030208BAE582B4FF0302087B
:2006CD00BA258340072482400B0208A424831450030208BAF582EA8DF0A4A8F0EA8EF0A4CD
:2006ED0028F8E435F0F9EB8DF0A428E935F0F9E433CA8FF0A429F9EA35F0FAEBF88EF0A45C
:20070D0029F9EA35F0FAE433FBEC8DF0A429F9EA35F0FAE43BFBE88FF0A42AFAEB35F0FB03
:20072D00E433CCFD8EF0A42AFAEB35F0FBE43CFCED8FF0A42BFBEC35F0FC20E70312077E7B
:03074D000208831C
:20075000AA82AB83A2F73392D1F5826002D2F7ACF0E58124F9F8E6FD08E6FE0886F008E60C
:0E077000A2F73392D5F5836002D2F7AFF022E4
:06004000E478FFF6D8FD94
:20077E007804EC7011E58224F8500AF582E4C9CACBFCD8EF22EC7820058220E713D582017A
:13079E0022C3E933F9EA33FAEB33FBEC33FCD8EA15822288
:20001E007900E94400601B7A00901043780175AF00E493F2A308B8000205AFD9F4DAF27517
:02003E00AFFF12
:2007B100AAF0FBE582850EF0A4FCADF0E583850EF0A42DFDE435F0FEE582850FF0A42DFDF3
:2007D100E5F03EFEE433FFEA850EF0A42EFEE5F03FFFE583850FF0A42EFEE5F03FFFE5825B
:2007F1008510F0A42EFEE5F03FFFEB850EF0A42FFFEA850FF0A42FFFE5838510F0A42FFF41
:0E081100E5828511F0A42F8EF08D838C82225B
:20081F00E50E450F60467A01E50E25E0F50EE50F334012F50FE582950EE583950F40030A76
:20083F0080E6C3E50F13F50FE50E13F50EC3E582950EF5F0E583950F4005F58385F082C327
:0D085F00E50F13F50FE50E13F50EDAE1229B
:200046007800E84400600A790175AF00E4F309D8FC7800E84400600C7900900001E4F0A3A9
:04006600D8FCD9FAEF
:0C086C00E4AC83AB82FAF9748E020F4CEE
:0B0878007F8E120F5CF58385F082225A
:20088300B98003EA13B34010EA2401FAE43BFBE43CFC50047C800582BC000EBB000BBA00B9
:2008A30008E4F5F0F583F58222A2D1E582138CF092F78B838A8222E4F583F58275F080F479
:0F08C300A2D11322E4F583F58275F0C0747F2271
:2008D200C00D85810D1200CAD00D2285826785836885F069E4F564F565F566850C6A90080A
:2008F200D20209CDC00D85810DE50D24FBFF8F6AE4F564F565F566E50D24FBF886670886DD
:0D091200680886699008D21209CDD00D2228
:20091F00AF82C05AC05BC05C12092C8007C058C0598F82221581158115810562E4B56202DE
:20093F00056322AF8274302FFF24C6500A74072FFF3003034307208F8202091FE582FFC419
:20095F00540FF582C007120942D007740F5FF58202094285820E855D0F855E10855F11858A
:20097F006012AA61751320EA2AFAE512235401FF8A064EFAE50F250FF50FE51033F510E5A1
:20099F001133F511E51233F512C3EA950E4008EAC3950EFA430F01E51314FF8F1370C8851E
:2009BF000F5D85105E85115F8512608A612285825885835985645A85655B85665CE4F562F6
:2009DF00F563AD67AE68AF698D828E838FF0120EF1FC74012DF567E43EF5688F69ECFF70E2
:2009FF0003020ED2BF25028003020ECAC204C205C206C207C208C209C20AC20B756B00750F
:200A1F006C00756DFFAA67AB68AE698A828B838EF0120EF1FFA3AA82AB838A678B688E69AF
:200A3F00BF25078F8212091F8098BF3000402DEF24C6402874FFB56D12E56C75F00AA42F72
:200A5F00FC24D0F56C70C4D20580C0E56D75F00AA4FC8F05ED2C24D0F56D80AFBF2E0A74DD
:200A7F00FFB56DA7756D0080A2BF6100400CEF248540075307DFD2038002C203BF2002808A
:200A9F006DBF2B028063BF2D028059BF42028063BF43028068BF4403020C70BF4603020CC8
:200ABF0086BF4803020A2ABF4903020C70BF4A03020A2ABF4C028040BF4F03020C77BF5014
:200ADF0003020C05BF5302805ABF5403020A2ABF5503020C7CBF5803020C81BF5A03020A35
:200AFF002A020C8AD204020A2AD206020A2AD207020A2AD209020A2AD20A020A2A30090A86
:200B1F00E56A14F9896A87078011E56A24FEFE8E6A8E018705098706198D078F8212091F38
:200B3F00020C93E56A24FDFE8E6A8E01870409870509870619198C5D8D5E8E5F8C828D8339
:200B5F008EF0120ED9AD82AE8374FFB56D028D6D200426C3ED956C5020E56CC39DF56CAEE3
:200B7F006C8E041EEC6010758220C006C00512091FD005D00680EA8E6CAE6D855D82855E91
:200B9F0083855FF0120EF1FCFF602F8E041EC374808CF063F08095F050208F82C006C005FD
:200BBF0012091FD005D006AA5DAB5EAC5F0ABA00010B8A5D8B5E8C5F80C1200403020C9382
:200BDF00C3ED956C4003020C93E56CC39DF56CAE6C8E041EEC7003020C91758220C0061298
:200BFF00091FD00680EBE56A24FDFC8C6A8C01870209870309870419198A5D8B5E8C5FAC35
:200C1F005FBC800040047F438014BC600040047F50800BBC400040047F4980027F588F8254
:200C3F00C00712091F75823A12091F75823012091F75827812091FD007BF4902800BBF50A4
:200C5F00028006855E8212095B855D8212095B8023D208756B0A801C756B088017756B0ACC
:200C7F008012756B10800DD20B80098F8212091F80028E6C300B5CE56A24FCFE8E6A8E018E
:200C9F0087020987030987040987061919198A5D8B5E8C5F8E60755D38755E10755F808535
:200CBF005D6F855E70855F717401256FFAE43570FCAE718A5D8C5E8E5F856F8285708385C9
:200CDF0071F0120EF1FEFF70030209E18F8212091F80CCE56B70030209E1756E1930092D7F
:200CFF00E56A14F9896A87048C027B007C007E008A5D8B5E8C5F8E60200866AA5D7B007CC3
:200D1F00007E008A5D8B5E8C5F8E608054300A21E56A24FCFE8E6A8E0187020987030987BE
:200D3F00040987061919198A5D8B5E8C5F8E608030E56A24FEFE8E6A8E0187040987061926
:200D5F00EE3395E0FBFA8C5D8E5E8B5F8A60200810AA5DAB5E7C007E008A5D8B5E8C5F8EB5
:200D7F0060300822E56030E71BC3E4955DFAE4955EFBE4955FFCE49560FE8A5D8B5E8C5F58
:200D9F008E608002C208D20CA96E7E00756100856B82C006C001120972D001D006200C0B4D
:200DBF00E561C4FCE7FB4CF7198002A7610EB20CE55D455E455F456070D2896E8E05E56C2F
:200DDF007003756C01200524200421ED04FEAC6CC3EE9C5015758220C006C005C0041209D7
:200DFF001FD004D005D0061C80E68C6C30080E75822DC00512091FD005156C8023ED6020ED
:200E1F0030060E75822BC00512091FD005156C800F30070C758220C00512091FD005156CBA
:200E3F00200426AE6C8E041EC3ED9C502F3005067B307C0080047B207C008B82C006C0051F
:200E5F0012091FD005D00680DCC3ED956C5008E56CC39DF56C8007756C0080028E6CA96E1C
:200E7F008D068E051EED6026B20C200C0A09E7C4540FFD8D6180078705740F5DF561856177
:200E9F0082C006C001120942D001D00680D42004030209E1AE6C8E051EED70030209E17533
:1A0EBF008220C00612091FD00680EB8F8212091F0209E18562828563832209
:0B1038003C4E4F20464C4F41543E0000
:180ED900AA82AB83120EF16003A380F8C3E5829AF582E5839BF5832240
:0D001100758171120F56E582600302000E2A
:1C0EF10020F71430F6148883A88220F507E6A88375830022E280F7E49322E02210
:200F0D00C2D5E58330E70DD2D5E4C39582F582E49583F583E50F30E70BE4C3950EF50EE40A
:160F2D00950FF50F12081F30D50BE4C39582F582E49583F58322F2
:130F4300FCABF0AA83A982749EC2D1F58212077E0208836C
:040F5600758200227E
:200F5A007F9E120FC430D1030208A4C3EF9582500974FFF5F0F583F582227900120F818994
:070F7A00828A838BF0EC2258
:200F81006040F82582500274FFF582E824F8501ECCCBCAF9E4CC24F85014CBCAF9E4CB2478
:200FA100F8500BCAF9E4CA24F8500379002224086010F8C3EC13FCEB13FBEA13FAE913F92B
:030FC100D8F12242
:120FC400AA82AB83A2F73392D1F5826002D2F7ACF02232
:00000001FF
