:040000000200513277
:01000B0032C2
:0100130032BA
:01001B0032B2
:0100230032AA
:01002B0032A2
:01003300329A
:01003B003292
:01004300328A
:03004B0002029915
:0F00AA00750888750913750AE8750B0302004E77
:03004E000201307C
:2000B90075B1677E007F01EE24FFFCEF34FFFD8C068D07EC4D70F0E5B130E7FB75B2882238
:2000D900759850758920758DDCD28E438E10438780D29943A4012275FFDE75FFAD1200B970
:2000F9001200D943E10443E34022AF8210990280FB8F992210980280FB859982120103854B
:200119009982222098057582FF800BC298859982120103859982221200F07582201201034A
:2001390012028512028912028F74E9C0E07408C0E07480C0E01202CE15811581158174F612
:20015900C0E07408C0E07480C0E01202CE158115811581741FC0E07409C0E07480C0E0129C
:2001790002CE1581158115817448C0E07409C0E07480C0E01202CE158115811581746DC082
:20019900E07409C0E07480C0E01202CE158115811581AC08AD09E4FEFF74FFC39CFC74FF85
:2001B9009DFDE49EFEE49FFF8CEB8DFB12010DAF82BF6117C3E50A94E8E50B94FD500C7484
:2001D900E8250AF50A7403350BF50BBF7317C374E8950A7403950B500CE50A2418F50AE5B0
:2001F9000B34FCF50BBF6B2FC3E50894E8E50994FD502474E82508F50874033509F509AB4F
:2002190008AC09E4FDFEC39BFBE49CFC74019DFDE49EFE8BEB8CFBBF6C31C374E89508743C
:200239000395095026E5082418F508E50934FCF509AC08AD09E4FEFF74FFC39CFC74FF9D23
:20025900FDE49EFEE49FFF8CEB8DFBC008C009C00AC00B7492C0E07409C0E07480C0E012F8
:2002790002CEE58124F9F5810201C52275E1272243E608D2AF2275D98175DBC243D84022E1
:1102990030DF0A850AE9850BF9C2DF800353D8C032F9
:2008E9000D0A20537461727420202020000D0A2061202D20696E63726561736573205043B5
:200909004120737461727420636F756E742062792031303030000D0A2073202D20646563D7
:200929007265617365732050434120737461727420636F756E742062792031303030000DB7
:200949000A206B202D20696E637265617365732070756C73652077696474682062792031FA
:20096900303030000D0A206C202D206465637265617365732070756C736520776964746896
:20098900206279203130303000205043415F7374617274203D20257520205057203D202551
:0A09A900752020202020200D0A00F8
:06008000E478FFF6D8FD54
:20005E007900E94400601B7A009009BE780175AF00E493F2A308B8000205AFD9F4DAF27563
:02007E00AFFFD2
:200086007800E84400600A790175AF00E4F309D8FC7800E84400600C7900900001E4F0A369
:0400A600D8FCD9FAAF
:2002AA00C00D85810D120103D00D2285823185833285F033E4F52EF52FF530850C3490027E
:2002CA00AA0203A5C00D85810DE50D24FBFF8F34E4F52EF52FF530E50D24FBF8863108866F
:0D02EA00320886339002AA1203A5D00D221F
:2002F700AF82C024C025C0261203048007C022C0238F8222158115811581052CE4B52C02B5
:20031700052D22AF8274302FFF24C6500A74072FFF3000034307208F820202F7E582FFC4AF
:20033700540FF582C00712031AD007740F5FF58202031A85820E85270F85281085291185B6
:200357002A12AA2B751320EA2AFAE512235401FF8A064EFAE50F250FF50FE51033F510E53B
:200377001133F511E51233F512C3EA950E4008EAC3950EFA430F01E51314FF8F1370C8854C
:200397000F2785102885112985122A8A2B22858222858323852E24852F25853026E4F52C18
:2003B700F52DAD31AE32AF338D828E838FF01208C9FC74012DF531E43EF5328F33ECFF70B8
:2003D700030208AABF250280030208A2C201C202C203C204C205C206C207C20875350075E7
:2003F70036007537FFAA31AB32AE338A828B838EF01208C9FFA3AA82AB838A318B328E33BC
:20041700BF25078F821202F78098BF3000402DEF24C6402874FFB53712E53675F00AA42F3B
:20043700FC24D0F53670C4D20280C0E53775F00AA4FC8F05ED2C24D0F53780AFBF2E0A74B0
:20045700FFB537A775370080A2BF6100400CEF248540075307DFD2008002C200BF2002802A
:200477006DBF2B028063BF2D028059BF42028063BF43028068BF4403020648BF460302062A
:200497005EBF4803020402BF4903020648BF4A03020402BF4C028040BF4F0302064FBF5022
:2004B700030205DDBF5302805ABF5403020402BF5503020654BF5803020659BF5A03020422
:2004D70002020662D201020402D203020402D204020402D206020402D20702040230060A02
:2004F700E53414F9893487078011E53424FEFE8E348E018705098706198D078F821202F76E
:2005170002066BE53424FDFE8E348E01870409870509870619198C278D288E298C828D83A3
:200537008EF01208B1AD82AE8374FFB537028D37200126C3ED95365020E536C39DF536AE50
:20055700368E041EEC6010758220C006C0051202F7D005D00680EA8E36AE378527828528FC
:20057700838529F01208C9FCFF602F8E041EC374808CF063F08095F050208F82C006C0058F
:200597001202F7D005D006AA27AB28AC290ABA00010B8A278B288C2980C120010302066B54
:2005B700C3ED9536400302066BE536C39DF536AE368E041EEC7003020669758220C00612FA
:2005D70002F7D00680EBE53424FDFC8C348C01870209870309870419198A278B288C29ACA0
:2005F70029BC800040047F438014BC600040047F50800BBC400040047F4980027F588F82B9
:20061700C0071202F775823A1202F77582301202F77582781202F7D007BF4902800BBF508E
:200637000280068528821203338527821203338023D20575350A801C753508801775350A67
:200657008012753510800DD20880098F821202F780028E3630085CE53424FCFE8E348E01C9
:2006770087020987030987040987061919198A278B288C298E2A7527B37528097529808569
:20069700273985283A85293B74012539FAE4353AFCAE3B8A278C288E29853982853A8385EB
:2006B7003BF01208C9FEFF70030203B98F821202F780CCE53570030203B975381930062D0B
:2006D700E53414F9893487048C027B007C007E008A278B288C298E2A200566AA277B007C6E
:2006F700007E008A278B288C298E2A8054300721E53424FCFE8E348E018702098703098734
:20071700040987061919198A278B288C298E2A8030E53424FEFE8E348E0187040987061998
:20073700EE3395E0FBFA8C278E288B298A2A200510AA27AB287C007E008A278B288C298ECC
:200757002A300522E52A30E71BC3E49527FAE49528FBE49529FCE4952AFE8A278B288C296F
:200777008E2A8002C205D209A9387E00752B00853582C006C00112034AD001D00620090B8A
:20079700E52BC4FCE7FB4CF7198002A72B0EB209E52745284529452A70D289388E05E53610
:2007B7007003753601200224200121ED04FEAC36C3EE9C5015758220C006C005C00412027E
:2007D700F7D004D005D0061C80E68C3630050E75822DC0051202F7D00515368023ED6020E1
:2007F70030030E75822BC0051202F7D0051536800F30040C758220C0051202F7D0051536B9
:20081700200126AE368E041EC3ED9C502F3002067B307C0080047B207C008B82C006C00589
:200837001202F7D005D00680DCC3ED95365008E536C39DF536800775360080028E36A938BD
:200857008D068E051EED6026B20920090A09E7C4540FFD8D2B80078705740F5DF52B852B4D
:2008770082C006C00112031AD001D00680D42001030203B9AE368E051EED70030203B97524
:1A0897008220C0061202F7D00680EB8F821202F70203B9852C82852D83222F
:0B09B3003C4E4F20464C4F41543E008C
:1808B100AA82AB831208C96003A380F8C3E5829AF582E5839BF583229C
:0D00510075813B1208E5E582600302004E58
:1C08C90020F71430F6148883A88220F507E6A88375830022E280F7E49322E0223E
:0408E50075820022F6
:00000001FF
