:040000000200513277
:01000B0032C2
:0100130032BA
:01001B0032B2
:0100230032AA
:01002B0032A2
:01003300329A
:01003B003292
:01004300328A
:03004B000206C3E7
:0300AA0002004E03
:03004E000205AFF9
:2000AD0075B1677E007F01EE24FFFCEF34FFFD8C068D07EC4D70F0E5B130E7FB75B2882244
:2000CD00759850758920758DDCD28E438E10438780D29943A4012275FFDE75FFAD1200AD88
:2000ED001200CD43E10443E34022AF8210990280FB8F992210980280FB8599821200F78570
:20010D009982222098057582FF800BC2988599821200F785998222C029858129E52924FB4D
:20012D00F886820886830886F0120E5EE5828583F045F070028062E52924FBFF8F25E529CF
:20014D0024FBF8862208862308862490000175F0001207CC90000175F000120E5EAE827F72
:20016D0000C3EF9E501FEF2401F582E43400F583E0FDBD0A0DEF2401F582E43400F5837458
:20018D000DF00F80DC7511017512007513007510008E147582C6120435D02922750B007416
:2001AD00C0250B401775160B7517007518407515007519017582C61204AF80E3750C0C75FC
:2001CD00110C7512007513407510007514017582C61204352275160E7517007518407515F1
:2001ED00017519027582C61204AF74FFB50E05758200805F7F008F068EF005F07C017D004D
:20020D008006EC2CFCED33FDD5F0F7AA0E7B00EA5204EB5205EC4D600774312FF58280330B
:20022D000E8E07BE080040D0E50F30E0057582398021E50F30E10575822A8017E50F30E296
:20024D0005758230800DE50F30E30575822380037582FF22AF82E4FDFEEF701DC006C00500
:20026D007496C0E0740EC0E07480C0E0120124158115811581D005D006C006C0057408C0A6
:20028D00E0E4C0E07408C0E0E4C0E07408C0E0E4C0E07408C0E0E4C0E07408C0E0E4C0E06D
:2002AD0074ACC0E0740EC0E07480C0E0120124E58124F3F58190A12075F007E41203D0D03B
:2002CD0005D0067F00C007C006C0051201E2AC82D005D006D0078C03BCFF028003BB2A17F5
:2002ED00902710E4F5F0C007C006C0051203D0D005D006D00780CEBB232AC006C0051201B4
:20030D00E2AC82D005D006BC2313902710E4F5F0C006C0051203D0D005D00680DD8D828E7E
:20032D00830203CF8B027C00C007C006C005C004C003C002C002C00474BCC0E0740EC0E03D
:20034D007480C0E0120124E58124FBF581D002D003D004D005D0068D458E4690000AC004A2
:20036D00C003C00212073FA882A983D002D003D004D007EA28F8EC39F9E824D0FDE934FFD0
:20038D00FEC007C006C005C0031201E2AC82D003D005D006D007ECB5031B902710E4F5F076
:2003AD00C007C006C005C0031203D0D003D005D006D00780CC0FBF050050030202D28D828A
:2003CD008E8322AC82AD83AEF0FF780079007A007B00C3E89CE99DEA9EEB9F500F08B800FE
:2003ED000909B900050ABA00E90B80E62220C7FDD2C530C3FDC2C5C2C3228582C210C302A9
:20040D0080FB228582C2D2C410C30280FB2230C3FD85C282C2C32230C3FDAFC2C2C3D2C485
:20042D0010C30280FB8F8222AF82C2AFC0071203FAD00774FE5FF58212040785108212044B
:20044D00077F00AD147E001DBDFF011E8F037C00C3EB9DEC64808EF063F08095F0501FEF75
:20046D002511FCE43512FDAE138C828D838EF0120E76F582C007120407D0070F80C5AE14DA
:20048D007F001EBEFF011FEE2511FEEF3512FFAD138E828F838DF0120E76F582120410D21A
:2004AD00AF22AF82C2AFC0071203FAD00774FE5FF582C0071204078515821204101203FA92
:2004CD00D00774014FF5821204077F00AD197E001DBDFF011E8F037C00C3EB9DEC64808E6E
:2004ED00F063F08095F0502ED2C2EF2516FCE43517FDAE18C007C006C005C00412041BAB8A
:20050D0082D004D005D006D0078C828D838EF0EB1207240F80B6C2C2AE197F001EBEFF0147
:20052D001FEE2516FEEF3517FFAD18C007C006C005120424AC82D005D006D0078E828F830B
:20054D008DF0EC120724D2AF22750823750900750910750A007511087512007513407510B8
:20056D00207514017582301204352275080475110875120075134075102375140175823A6F
:20058D0012043575086B750900750A0075110875120075134075102075140175823A1204CB
:2005AD0035221200E41206A91206AD1206B61206BD75820D1200F774BFC0E0740EC0E07442
:2005CD0080C0E012087B158115811581E4F51AF51BC3E51A9401E51B940040F51201A97444
:2005ED00C8C0E0740EC0E07480C0E01201241581158115811201E2AF82C00774FCC0E07466
:20060D000EC0E07480C0E01201241581158115817402C0E0740FC0E07480C0E012087B151B
:20062D008115811581D007BFFF0280C8C0071201A9D0078F057E00C007C006C005C005C0DE
:20064D0006C005C0067409C0E0740FC0E07480C0E0120124E58124F9F581D005D006C00588
:20066D00C006C005C0067426C0E0740FC0E07480C0E012087BE58124F9F581D007EF600374
:20068D000206017444C0E0740FC0E07480C0E012087B1581158115810206012275E1052236
:2006AD0043A80243E608D2AF2275D98143D8402275CF93D2C622C0E0C0D010DF02802E05BB
:2006CD001EE4B51E02051F051CE4B51C02051D75E90075F970C37432951CE4951D5011E4E7
:2006ED00F51CF51D051AB51A07051B800353D8C0D0D0D0E032E4F51CF51DC3E51C9401E580
:17070D001D940040F522E4F51CF51DC3E51C9432E51D940040F5224F
:200E96000A54797065206469676974733B20656E6420772F2300202020202025632563259C
:200EB6006325632563002563000A53746172740D0A0043616C6962726174696F6E3A0A48FE
:200ED600656C6C6F20776F726C64210A3031325F3334355F3637383A0A6162632064656692
:200EF600206768696A0048656C6C6F0048656C6C6F0A00596F7572206B6579207761733A6B
:200F16000A2025632C20203D20486578202558000A0D596F7572206B6579207761733A208A
:200F360025632C20203D20486578202558002020202A2A5769726520436F6E6E65637469EA
:130F56006F6E2F58425230204572726F722A2A2020200082
:06008000E478FFF6D8FD54
:20005E007900E94400601B7A00900F74785175AF00E493F2A308B8000205AFD9F4DAF27557
:02007E00AFFFD2
:1B07240020F71130F6138883A88220F509F6A8837583002280FEF280F5F022D4
:1D073F00E5828545F0A4C582C0F08546F0A4D0F025F0C5838545F0A42583F58322C5
:20075C00C029858129C082058105810581E52924FBF8A9290909E6F70809E6F70809E6F7CF
:20077C00A829080886820886830886F0120E76FAA3120E76FBA3120E76FF74012AFCE43B2F
:20079C00FD8F06A829080886820886830886F0EC120724A3ED120724A3EE1207248A828BD8
:2007BC00838FF0A82908E6120724852981D0292285822685832785F02875372675380075E8
:2007DC00394085223A85233B85243C85253D90075C120952AE82AF83AB26AC27AD288B82AC
:2007FC008C838DF0E41207248E828F8322C029858129E52924F8FF8F3DE52924FBFF8F37ED
:20081C00753800753940E52924F8F8863A08863B08863C90075C120952AE82AF83E52924B8
:1B083C00FBF886030886040886058B828C838DF0E41207248E828F83D0292209
:200086007800E84400600A790175AF00E4F309D8FC7850E84400600C7901900001E4F0A318
:0400A600D8FCD9FAAF
:20085700C0298581291200F7D0292285823A85833B85F03CE4F537F538F539852A3D900821
:2008770057020952C029858129E52924FBFF8F3DE4F537F538F539E52924FBF8863A0886BF
:0D0897003B08863C900857120952D02922D8
:2008A400AF82C02DC02EC02F1208B18007C02BC02C8F82221581158115810535E4B5350211
:2008C400053622AF8274302FFF24C6500A74072FFF3000034307208F820208A4E582FFC441
:2008E400540FF582C0071208C7D007740F5FF5820208C785824585304685314785324885A9
:200904003349AA34754A20EA2AFAE549235401FF8A064EFAE5462546F546E54733F547E5BE
:200924004833F548E54933F549C3EA95454008EAC39545FA434601E54A14FF8F4A70C885AA
:2009440046308547318548328549338A342285822B85832C85372D85382E85392FE4F5350B
:20096400F536AD3AAE3BAF3C8D828E838FF0120E76FC74012DF53AE43EF53B8F3CECFF7013
:2009840003020E57BF25028003020E4FC201C202C203C204C205C206C207C208753E0075C5
:2009A4003F007540FFAA3AAB3BAE3C8A828B838EF0120E76FFA3AA82AB838A3A8B3B8E3C0E
:2009C400BF25078F821208A48098BF3000402DEF24C6402874FFB54012E53F75F00AA42FC4
:2009E400FC24D0F53F70C4D20280C0E54075F00AA4FC8F05ED2C24D0F54080AFBF2E0A74E3
:200A0400FFB540A775400080A2BF6100400CEF248540075307DFD2008002C200BF20028065
:200A24006DBF2B028063BF2D028059BF42028063BF43028068BF4403020BF5BF4603020CBF
:200A44000BBF48030209AFBF4903020BF5BF4A030209AFBF4C028040BF4F03020BFCBF50FA
:200A640003020B8ABF5302805ABF54030209AFBF5503020C01BF5803020C06BF5A0302099F
:200A8400AF020C0FD2010209AFD2030209AFD2040209AFD2060209AFD2070209AF30060A75
:200AA400E53D14F9893D87078011E53D24FEFE8E3D8E018705098706198D078F821208A4E4
:200AC400020C18E53D24FDFE8E3D8E01870409870509870619198C308D318E328C828D8311
:200AE4008EF0120E5EAD82AE8374FFB540028D40200126C3ED953F5020E53FC39DF53FAEBE
:200B04003F8E041EEC6010758220C006C0051208A4D005D00680EA8E3FAE40853082853169
:200B2400838532F0120E76FCFF602F8E041EC374808CF063F08095F050208F82C006C00520
:200B44001208A4D005D006AA30AB31AC320ABA00010B8A308B318C3280C1200103020C1805
:200B6400C3ED953F4003020C18E53FC39DF53FAE3F8E041EEC7003020C16758220C00612BD
:200B840008A4D00680EBE53D24FDFC8C3D8C01870209870309870419198A308B318C32AC0D
:200BA40032BC800040047F438014BC600040047F50800BBC400040047F4980027F588F82FD
:200BC400C0071208A475823A1208A47582301208A47582781208A4D007BF4902800BBF5010
:200BE4000280068531821208E08530821208E08023D205753E0A801C753E088017753E0A24
:200C04008012753E10800DD20880098F821208A480028E3F30085CE53D24FCFE8E3D8E013F
:200C240087020987030987040987061919198A308B318C328E3375306975310F75328085BB
:200C4400304285314385324474012542FAE43543FCAE448A308C318E3285428285438385BA
:200C640044F0120E76FEFF70030209668F821208A480CCE53E700302096675415030062D3A
:200C8400E53D14F9893D87048C027B007C007E008A308B318C328E33200566AA307B007C7C
:200CA400007E008A308B318C328E338054300721E53D24FCFE8E3D8E01870209870309874B
:200CC400040987061919198A308B318C328E338030E53D24FEFE8E3D8E01870409870619B0
:200CE400EE3395E0FBFA8C308E318B328A33200510AA30AB317C007E008A308B318C328EC9
:200D040033300522E53330E71BC3E49530FAE49531FBE49532FCE49533FE8A308B318C326B
:200D24008E338002C205D209A9417E00753400853E82C006C0011208F7D001D00620090B01
:200D4400E534C4FCE7FB4CF7198002A7340EB209E53045314532453370D289418E05E53F15
:200D64007003753F01200224200121ED04FEAC3FC3EE9C5015758220C006C005C0041208B3
:200D8400A4D004D005D0061C80E68C3F30050E75822DC0051208A4D005153F8023ED6020BC
:200DA40030030E75822BC0051208A4D005153F800F30040C758220C0051208A4D005153F8E
:200DC400200126AE3F8E041EC3ED9C502F3002067B307C0080047B207C008B82C006C005CE
:200DE4001208A4D005D00680DCC3ED953F5008E53FC39DF53F8007753F0080028E3FA94122
:200E04008D068E051EED6026B20920090A09E7C4540FFD8D3480078705740F5DF53485347F
:200E240082C006C0011208C7D001D00680D4200103020966AE3F8E051EED70030209667550
:1A0E44008220C0061208A4D00680EB8F821208A40209668535828536832251
:0B0F69003C4E4F20464C4F41543E00D0
:180E5E00AA82AB83120E766003A380F8C3E5829AF582E5839BF5832236
:0D005100758150120E92E582600302004E90
:1C0E760020F71430F6148883A88220F507E6A88375830022E280F7E49322E0228B
:040E92007582002243
:00000001FF
