:040000000200513277
:01000B0032C2
:0100130032BA
:01001B0032B2
:0100230032AA
:01002B0032A2
:01003300329A
:01003B003292
:01004300328A
:03004B000201822D
:0C00AA00E4F508F509F50AF50B02004E1C
:03004E0002012D7F
:2000B60075B1677E007F01EE24FFFCEF34FFFD8C068D07EC4D70F0E5B130E7FB75B288223B
:2000D600759850758920758DDCD28E438E10438780D29943A4012275FFDE75FFAD1200B676
:2000F6001200D643E10443E34022AF8210990280FB8F992210980280FB8599821201008554
:200116009982222098057582FF800BC298859982120100859982221200ED75822012010056
:2001360012016B12016F1201737465C0E07408C0E07480C0E012024A15811581158175085D
:20015600CF75090A75EB3075FBF5E4F50AF50B1201A380FB2243A5092275E1272275D98186
:2001760075DBC243D84043E608D2AF22C0E0C0D030DF1275E90075F970050AE4B50A0205E2
:200196000BC2DF800353D8C0D0D0D0E03212010AAF82BF7229C3E50894B1E509940D500B26
:2001B600740A2508F508E43509F509C3E50894EDE509940750337508ED750907802BBF6C5F
:2001D60028C374ED950874079509500CE50824F6F508E50934FFF509C374B19508740D95ED
:2001F6000950067508B175090DC008C009748CC0E07408C0E07480C0E012024AE58124FB0D
:10021600F58174FFC39508F5EB74FF9509F5FB228C
:20086500456D62656464656420436F6E74726F6C205374656572696E672043616C6962729A
:100885006174696F6E0A0050573A2025750D0A008C
:06008000E478FFF6D8FD54
:20005E007900E94400601B7A009008A0780175AF00E493F2A308B8000205AFD9F4DAF27582
:02007E00AFFFD2
:200086007800E84400600A790175AF00E4F309D8FC7800E84400600C7900900001E4F0A369
:0400A600D8FCD9FAAF
:20022600C010858110120100D0102285823185833285F033E4F52EF52FF530850F349002F9
:2002460026020321C010858110E51024FBFF8F34E4F52EF52FF530E51024FBF886310886EF
:0D02660032088633900226120321D01022A8
:20027300AF82C024C025C0261202808007C022C0238F8222158115811581052CE4B52C02BE
:20029300052D22AF8274302FFF24C6500A74072FFF3000034307208F82020273E582FFC4B8
:2002B300540FF582C007120296D007740F5FF5820202968582118527128528138529148539
:2002D3002A15AA2B751620EA2AFAE515235401FF8A064EFAE5122512F512E51333F513E5A8
:2002F3001433F514E51533F515C3EA95114008EAC39511FA431201E51614FF8F1670C885B6
:20031300122785132885142985152A8A2B22858222858323852E24852F25853026E4F52C90
:20033300F52DAD31AE32AF338D828E838FF0120845FC74012DF531E43EF5328F33ECFF70C0
:2003530003020826BF2502800302081EC201C202C203C204C205C206C207C2087535007573
:2003730036007537FFAA31AB32AE338A828B838EF0120845FFA3AA82AB838A318B328E33C4
:20039300BF25078F821202738098BF3000402DEF24C6402874FFB53712E53675F00AA42F44
:2003B300FC24D0F53670C4D20280C0E53775F00AA4FC8F05ED2C24D0F53780AFBF2E0A7435
:2003D300FFB537A775370080A2BF6100400CEF248540075307DFD2008002C200BF200280AF
:2003F3006DBF2B028063BF2D028059BF42028063BF43028068BF44030205C4BF4603020535
:20041300DABF480302037EBF49030205C4BF4A0302037EBF4C028040BF4F030205CBBF503E
:2004330003020559BF5302805ABF540302037EBF55030205D0BF58030205D5BF5A030203BA
:200453007E0205DED20102037ED20302037ED20402037ED20602037ED20702037E30060A28
:20047300E53414F9893487078011E53424FEFE8E348E018705098706198D078F8212027376
:200493000205E7E53424FDFE8E348E01870409870509870619198C278D288E298C828D83AD
:2004B3008EF012082DAD82AE8374FFB537028D37200126C3ED95365020E536C39DF536AE59
:2004D300368E041EEC6010758220C006C005120273D005D00680EA8E36AE37852782852805
:2004F300838529F0120845FCFF602F8E041EC374808CF063F08095F050208F82C006C00598
:20051300120273D005D006AA27AB28AC290ABA00010B8A278B288C2980C12001030205E7E1
:20053300C3ED953640030205E7E536C39DF536AE368E041EEC70030205E5758220C0061288
:200553000273D00680EBE53424FDFC8C348C01870209870309870419198A278B288C29ACA8
:2005730029BC800040047F438014BC600040047F50800BBC400040047F4980027F588F823D
:20059300C00712027375823A120273758230120273758278120273D007BF4902800BBF5023
:2005B3000280068528821202AF8527821202AF8023D20575350A801C753508801775350AF6
:2005D3008012753510800DD20880098F8212027380028E3630085CE53424FCFE8E348E01D2
:2005F30087020987030987040987061919198A278B288C298E2A752795752808752980850D
:20061300273985283A85293B74012539FAE4353AFCAE3B8A278C288E29853982853A83856F
:200633003BF0120845FEFF70030203358F8212027380CCE535700302033575381C30062D9C
:20065300E53414F9893487048C027B007C007E008A278B288C298E2A200566AA277B007CF2
:20067300007E008A278B288C298E2A8054300721E53424FCFE8E348E0187020987030987B8
:20069300040987061919198A278B288C298E2A8030E53424FEFE8E348E018704098706191D
:2006B300EE3395E0FBFA8C278E288B298A2A200510AA27AB287C007E008A278B288C298E51
:2006D3002A300522E52A30E71BC3E49527FAE49528FBE49529FCE4952AFE8A278B288C29F4
:2006F3008E2A8002C205D209A9387E00752B00853582C006C0011202C6D001D00620090B94
:20071300E52BC4FCE7FB4CF7198002A72B0EB209E52745284529452A70D289388E05E53694
:200733007003753601200224200121ED04FEAC36C3EE9C5015758220C006C005C004120202
:2007530073D004D005D0061C80E68C3630050E75822DC005120273D00515368023ED60206D
:2007730030030E75822BC005120273D0051536800F30040C758220C005120273D005153645
:20079300200126AE368E041EC3ED9C502F3002067B307C0080047B207C008B82C006C0050E
:2007B300120273D005D00680DCC3ED95365008E536C39DF536800775360080028E36A938C6
:2007D3008D068E051EED6026B20920090A09E7C4540FFD8D2B80078705740F5DF52B852BD2
:2007F30082C006C001120296D001D00680D4200103020335AE368E051EED70030203357536
:1A0813008220C006120273D00680EB8F82120273020335852C82852D83223F
:0B0895003C4E4F20464C4F41543E00AB
:18082D00AA82AB831208456003A380F8C3E5829AF582E5839BF58322A4
:0D00510075813B120861E582600302004EDC
:1C08450020F71430F6148883A88220F507E6A88375830022E280F7E49322E022C2
:04086100758200227A
:00000001FF
