:040000000200513277
:01000B0032C2
:0100130032BA
:01001B0032B2
:0100230032AA
:01002B0032A2
:01003300329A
:01003B003292
:01004300328A
:03004B000206F6B4
:1500AA00754084754103754901754A00754B01754C0002004EFF
:03004E000205C1E7
:2000BF0075B1677E007F01EE24FFFCEF34FFFD8C068D07EC4D70F0E5B130E7FB75B2882232
:2000DF00759850758920758DDCD28E438E10438780D29943A4012275FFDE75FFAD1200BF64
:2000FF001200DF43E10443E34022AF8210990280FB8F992210980280FB8599821201098539
:20011F009982222098057582FF800BC29885998212010985998222C00F85810FE50F24FB76
:20013F00F886820886830886F012147EE5828583F045F070028062E50F24FBFF8F0BE50FE5
:20015F0024FBF8860808860908860A90000175F000120D9290000175F00012147EAE827FBC
:20017F0000C3EF9E501FEF2401F582E43400F583E0FDBD0A0DEF2401F582E43400F5837446
:20019F000DF00F80DC752B01752C00752D00752A008E2E7582C6120447D00F227525007470
:2001BF00C025254017753025753100753240752F007533017582C61204C180E375260C7508
:2001DF002B26752C00752D40752A00752E017582C612044722753028753100753240752FAF
:2001FF00017533027582C61204C174FFB52805758200805F7F008F068EF005F07C017D00F5
:20021F008006EC2CFCED33FDD5F0F7AA287B00EA5204EB5205EC4D600774312FF5828033DF
:20023F000E8E07BE080040D0E52930E0057582398021E52930E10575822A8017E52930E236
:20025F0005758230800DE52930E30575822380037582FF22AF82E4FDFEEF701DC006C005D4
:20027F007450C0E07415C0E07480C0E0120136158115811581D005D006C006C0057408C0C1
:20029F00E0E4C0E07408C0E0E4C0E07408C0E0E4C0E07408C0E0E4C0E07408C0E0E4C0E05B
:2002BF007466C0E07415C0E07480C0E0120136E58124F3F58190A12075F007E41203E2D044
:2002DF0005D0067F00C007C006C0051201F4AC82D005D006D0078C03BCFF028003BB2A17D1
:2002FF00902710E4F5F0C007C006C0051203E2D005D006D00780CEBB232AC006C005120190
:20031F00F4AC82D005D006BC2313902710E4F5F0C006C0051203E2D005D00680DD8D828E48
:20033F00830203E18B027C00C007C006C005C004C003C002C002C0047476C0E07415C0E058
:20035F007480C0E0120136E58124FBF581D002D003D004D005D0068D118E1290000AC004E6
:20037F00C003C002120D05A882A983D002D003D004D007EA28F8EC39F9E824D0FDE934FFF2
:20039F00FEC007C006C005C0031201F4AC82D003D005D006D007ECB5031B902710E4F5F052
:2003BF00C007C006C005C0031203E2D003D005D006D00780CC0FBF050050030202E48D8254
:2003DF008E8322AC82AD83AEF0FF780079007A007B00C3E89CE99DEA9EEB9F500F08B800EC
:2003FF000909B900050ABA00E90B80E62220C7FDD2C530C3FDC2C5C2C3228582C210C30297
:20041F0080FB228582C2D2C410C30280FB2230C3FD85C282C2C32230C3FDAFC2C2C3D2C473
:20043F0010C30280FB8F8222AF82C2AFC00712040CD00774FE5FF582120419852A821204FA
:20045F00197F00AD2E7E001DBDFF011E8F037C00C3EB9DEC64808EF063F08095F0501FEF37
:20047F00252BFCE4352CFDAE2D8C828D838EF0121496F582C007120419D0070F80C5AE2E28
:20049F007F001EBEFF011FEE252BFEEF352CFFAD2D8E828F838DF0121496F582120422D282
:2004BF00AF22AF82C2AFC00712040CD00774FE5FF582C007120419852F8212042212040C1C
:2004DF00D00774014FF5821204197F00AD337E001DBDFF011E8F037C00C3EB9DEC64808E30
:2004FF00F063F08095F0502ED2C2EF2530FCE43531FDAE32C007C006C005C00412042DAB18
:20051F0082D004D005D006D0078C828D838EF0EB120CEA0F80B6C2C2AE337F001EBEFF0150
:20053F001FEE2530FEEF3531FFAD32C007C006C005120436AC82D005D006D0078E828F8399
:20055F008DF0EC120CEAD2AF22752223752300752310752400752B22752C00752D40752AF1
:20057F0020752E0175823012044722752204752B22752C00752D40752A23752E0175823A7B
:20059F0012044775226B752300752400752B22752C00752D40752A20752E0175823A1204BD
:2005BF0047221200F61206BC1206C61206D91206CF1206EC1206F275820D1201097479C046
:2005DF00E07415C0E07480C0E0120E9B158115811581C04BC04CC049C04AC040C0417481C2
:2005FF00C0E07415C0E07480C0E0120136E58124F7F5811207F412079B858246858347AD35
:20061F004DAE4EAF4F8D828E838FF07451120CEA752A00854D2B854E2C854F2D752E017553
:20063F0082E0120447E4F53AF53BC3E53A9404E53B940040F51207CE8582428583431209A0
:20065F0069120B7EC046C047C044C045C03EC03FC03CC03DC040C041C038C03974A5C0E0C0
:20067F007415C0E07480C0E0120E9BE58124F1F5811201BBC042C043C046C047C03CC03D19
:20069F00C038C03974BEC0E07415C0E07480C0E0120136E58124F5F5810206152253BDF737
:2006BF0053A73F43B0C02243A80243E608D2AF2275D10375AA8043AB012275D98175DAC273
:2006DF0075DBC275DCC275DDC243D8402275CF93D2C62275E12522C0E0C0D030DF29053476
:2006FF00E4B534020535C3E5349404E5359400400AE4F534F535753601F537053AE4B53A45
:20071F0002053BC2DF800353D8C0D0D0D0E0327582041207891214B2AC82AD83AEF0FFC0B7
:20073F0004C005C006C00790999A75F019743C120BE6AC82AD83AEF0FFE58124FCF581C099
:20075F0004C005C006C00790000075F07A7444120BE6AC82AD83AEF0FFE58124FCF5818C77
:20077F00828D838EF0EF120E1D228582AC53AADF43AA10E5AA30E5FB859C8222E4F546F5F8
:20079F00477548E0753050F531753240752F027533027582E01204C1AF507E00AC517D005F
:2007BF00EC4EF546ED4FF54785468285478322753052753100753240752F027533027582A4
:2007DF00C01204C1AF527E00AC537D00EC4EF582ED4FF583227ED07F077D61C007C006C0E2
:2007FF000574EAC0E07415C0E07480C0E0120E9B158115811581D005D006D007BD74028068
:20081F0031C007C006120113AD82D006D007BD750974322EFEE43FFF800BBD6408EE24CE36
:20083F00FEEF34FFFF74FFC39EF5EB74FF9FF5FB80CA22E4F554F55575565AF5577558B4EF
:20085F00F559755A0E755B011201BB7425C0E07416C0E07480C0E0120136158115811581AD
:20087F001201F4AF82BFFF0280F61201F4AF827E00EF24D0FFEE34FFFEC007C0061201BBD9
:20089F00D006D007EECF25E0CF33EF2454F9874009874122C374349546E495475023E5460A
:2008BF0024CCF511E54734FFF512900012120D05AE82AF8374CDC39EF538740A9FF53980FB
:2008DF0051C374489546E495475008753865753909803FC3E5469430E54794005023743025
:2008FF00C39546F511E49547F512900012120D05E5828583F024CDF538740A35F0F53980DA
:20091F0011C3E546941CE5479400500675383575390CC374359538740C9539500875383596
:20093F0075390C8011C3E5389465E5399409500675386575390974FFC39538FE74FF953958
:20095F00FF8EEA8FFA8EED8FFD22E540C39542F53CE5419543F53DE53CC3953EF544E53D1D
:20097F00953FF545C3E53C94F8E53D64809478500E7410253CF53C740E353DF53D801DC3CE
:20099F007408953C7487853DF063F08095F0500CE53C24F0F53CE53D34F1F53DC3743295AD
:2009BF004474808545F063F08095F05015C3E54494F4E54564809481500875383575390CDE
:2009DF008074C3E54494CEE5456480947F5019C3740C9544747E8545F063F08095F05008B4
:2009FF00753865753909804E853C11853D12854982854A83120D05E5828583F024CDFE7413
:200A1F000A35F0FFE53CC3953EFCE53D953FFD8C118D12854B82854C83C007C006120D0550
:200A3F00AC82AD83D006D007EC2EFEED3FFF7D007C008E388F39C374359538740C953950EB
:200A5F000875383575390C8011C3E5389465E5399409500675386575390974FFC39538FE8E
:200A7F0074FF9539FF8EEA8FFA8EED8FFD853C3E853D3F22755C00755D84755E08755F8C8B
:200A9F001201BB7425C0E07416C0E07480C0E0120136158115811581120BD51201F4AF823D
:200ABF00BFFF0280F61201F4E58224D0FFC0071201BBD007EF245CF987078F40754100C0D9
:200ADF0040C0417469C0E07416C0E07480C0E0120136E58124FBF581120BD5221201BB74E1
:200AFF0077C0E07416C0E07480C0E0120136158115811581120BD51201BBC049C04A74A010
:200B1F00C0E07416C0E07480C0E0120136E58124FBF581120BD5221201BB74B8C0E07416DC
:200B3F00C0E07480C0E0120136158115811581120BD51201F4AF82BFFF0280F61201F412DE
:200B5F0001BBC04BC04C74DFC0E07416C0E07480C0E0120136E58124FBF581120BD5222278
:200B7F00120113AF82BF750D74642538F538E43539F5398014120113AF82BF640CE5382481
:200B9F009CF538E53934FFF539C038C03974F5C0E07416C0E07480C0E0120E9BE58124FBF6
:200BBF00F58174FFC39538FE74FF9539FF8EEA8FFA8EED8FFD22E4F53AF53BC3E53A942854
:070BDF00E53B940040F52204
:201550000A54797065206469676974733B20656E6420772F230020202020202563256325DB
:2015700063256325630025630053746172740D0A0048656164696E673A2025642C205047C5
:2015900061696E3A2025642C20444761696E3A2025640D0A0025642C2025642C2025642CB8
:2015B0002025642C2025642C2025640D0A0050573A2025642C204572726F723A2025642CC2
:2015D0002052616E67653A2025642C2048656164696E673A2025640D0A000D4D616B65206A
:2015F000746865207468696E6720766572746963616C2C2075736520757028752920646F8F
:20161000776E2864292C207468656E20707265737320740A005069636B206120646573696D
:201630007265642068656164696E67203A20302C2039302C203138302C203237300D0A49E6
:201650006E7075742061206E756D6265722066726F6D20302D330D0A0048656164696E673E
:201670003A2025640D0A005069636B206120646573697265642070726F706F7274696F6EDC
:20169000616C206761696E2076616C75650D0A0050726F706F7274696F6E616C2067616900
:2016B0006E3A2025640D0A005069636B2061206465736972656420646572697661746976BC
:2016D00065206761696E2076616C75650D0A0044657269766174697665206761696E3A2056
:0E16F00025640D0A0050573A2025640D0A00AB
:200BE600120C89BC0003020E49EF60FA30D502B2D1E583B4FF03020E5FE582B4FF03020EA3
:200C06005F258340072482400B020E492483145003020E5FF582EA8DF0A4A8F0EA8EF0A493
:200C260028F8E435F0F9EB8DF0A428E935F0F9E433CA8FF0A429F9EA35F0FAEBF88EF0A41D
:200C460029F9EA35F0FAE433FBEC8DF0A429F9EA35F0FAE43BFBE88FF0A42AFAEB35F0FBC5
:200C6600E433CCFD8EF0A42AFAEB35F0FBE43CFCED8FF0A42BFBEC35F0FC20E703120CB7FF
:030C8600020E2833
:200C8900AA82AB83A2F73392D1F5826002D2F7ACF0E58124F9F8E6FD08E6FE0886F008E6CE
:0E0CA900A2F73392D5F5836002D2F7AFF022A6
:06008000E478FFF6D8FD54
:200CB7007804EC7011E58224F8500AF582E4C9CACBFCD8EF22EC7820058220E713D582013C
:130CD70022C3E933F9EA33FAEB33FBEC33FCD8EA1582224A
:20005E007900E94400601B7A00901709785175AF00E493F2A308B8000205AFD9F4DAF275BA
:02007E00AFFFD2
:1B0CEA0020F71130F6138883A88220F509F6A8837583002280FEF280F5F02209
:1D0D0500E5828511F0A4C582C0F08512F0A4D0F025F0C5838511F0A42583F5832295
:200D2200C00F85810FC082058105810581E50F24FBF8A90F0909E6F70809E6F70809E6F76B
:200D4200A80F080886820886830886F0121496FAA3121496FBA3121496FF74012AFCE43B0B
:200D6200FD8F06A80F080886820886830886F0EC120CEAA3ED120CEAA3EE120CEA8A828BC5
:200D8200838FF0A80F08E6120CEA850F81D00F2285820C85830D85F00E756C0C756D00759D
:200DA2006E4085086F850970850A71850B72900D22120F72AE82AF83AB0CAC0DAD0E8B829B
:200DC2008C838DF0E4120CEA8E828F8322C00F85810FE50F24F8FF8F72E50F24FBFF8F6C54
:200DE200756D00756E40E50F24F8F8866F088670088671900D22120F72AE82AF83E50F2426
:1B0E0200FBF886030886040886058B828C838DF0E4120CEA8E828F83D00F228C
:200086007800E84400600A790175AF00E4F309D8FC7850E84400600C7901900001E4F0A318
:0400A600D8FCD9FAAF
:0B0E1D007F8E1214D6F58385F0822230
:200E2800B98003EA13B34010EA2401FAE43BFBE43CFC50047C800582BC000EBB000BBA000E
:200E480008E4F5F0F583F58222A2D1E582138CF092F78B838A8222E4F583F58275F080F4CE
:0F0E6800A2D11322E4F583F58275F0C0747F22C6
:200E7700C00F85810F120109D00F2285826F85837085F071E4F56CF56DF56E851072900ED7
:200E970077020F72C00F85810FE50F24FBFF8F72E4F56CF56DF56EE50F24FBF8866F0886B2
:0D0EB70070088671900E77120F72D00F2216
:200EC400AF82C062C063C064120ED18007C060C0618F8222158115811581056AE4B56A0252
:200EE400056B22AF8274302FFF24C6500A74072FFF3000034307208F82020EC4E582FFC4C0
:200F0400540FF582C007120EE7D007740F5FF582020EE78582118565128566138567148567
:200F24006815AA69751620EA2AFAE515235401FF8A064EFAE5122512F512E51333F513E5CE
:200F44001433F514E51533F515C3EA95114008EAC39511FA431201E51614FF8F1670C88558
:200F640012658513668514678515688A6922858260858361856C62856D63856E64E4F56ACF
:200F8400F56BAD6FAE70AF718D828E838FF0121496FC74012DF56FE43EF5708F71ECFF7054
:200FA40003021477BF2502800302146FC201C202C203C204C205C206C207C208757300751E
:200FC40074007575FFAA6FAB70AE718A828B838EF0121496FFA3AA82AB838A6F8B708E711A
:200FE400BF25078F82120EC48098BF3000402DEF24C6402874FFB57512E57475F00AA42F0E
:20100400FC24D0F57470C4D20280C0E57575F00AA4FC8F05ED2C24D0F57580AFBF2E0A741D
:20102400FFB575A775750080A2BF6100400CEF248540075307DFD2008002C200BF200280D5
:201044006DBF2B028063BF2D028059BF42028063BF43028068BF4403021215BF460302126C
:201064002BBF4803020FCFBF4903021215BF4A03020FCFBF4C028040BF4F0302121CBF501A
:20108400030211AABF5302805ABF5403020FCFBF5503021221BF5803021226BF5A03020FDB
:2010A400CF02122FD201020FCFD203020FCFD204020FCFD206020FCFD207020FCF30060A4B
:2010C400E57214F9897287078011E57224FEFE8E728E018705098706198D078F82120EC4C4
:2010E400021238E57224FDFE8E728E01870409870509870619198C658D668E678C828D83BC
:201104008EF012147EAD82AE8374FFB575028D75200126C3ED95745020E574C39DF574AE68
:20112400748E041EEC6010758220C006C005120EC4D005D00680EA8E74AE75856582856614
:20114400838567F0121496FCFF602F8E041EC374808CF063F08095F050208F82C006C0059F
:20116400120EC4D005D006AA65AB66AC670ABA00010B8A658B668C6780C120010302123855
:20118400C3ED95744003021238E574C39DF574AE748E041EEC7003021236758220C0061277
:2011A4000EC4D00680EBE57224FDFC8C728C01870209870309870419198A658B668C67ACB8
:2011C40067BC800040047F438014BC600040047F50800BBC400040047F4980027F588F82A2
:2011E400C007120EC475823A120EC4758230120EC4758278120EC4D007BF4902800BBF5052
:20120400028006856682120F00856582120F008023D20575730A801C757308801775730AA6
:201224008012757310800DD20880098F82120EC480028E7430085CE57224FCFE8E728E011F
:2012440087020987030987040987061919198A658B668C678E687565FE7566167567808586
:20126400657785667885677974012577FAE43578FCAE798A658C668E6785778285788385AE
:2012840079F0121496FEFF7003020F868F82120EC480CCE5737003020F8675761C30062D11
:2012A400E57214F9897287048C027B007C007E008A658B668C678E68200566AA657B007CE3
:2012C400007E008A658B668C678E688054300721E57224FCFE8E728E0187020987030987E7
:2012E400040987061919198A658B668C678E688030E57224FEFE8E728E018704098706194C
:20130400EE3395E0FBFA8C658E668B678A68200510AA65AB667C007E008A658B668C678EC5
:2013240068300522E56830E71BC3E49565FAE49566FBE49567FCE49568FE8A658B668C6768
:201344008E688002C205D209A9767E00756900857382C006C001120F17D001D00620090BE0
:20136400E569C4FCE7FB4CF7198002A7690EB209E56545664567456870D289768E05E57447
:201384007003757401200224200121ED04FEAC74C3EE9C5015758220C006C005C004120E1D
:2013A400C4D004D005D0061C80E68C7430050E75822DC005120EC4D00515748023ED6020E6
:2013C40030030E75822BC005120EC4D0051574800F30040C758220C005120EC4D0051574B2
:2013E400200126AE748E041EC3ED9C502F3002067B307C0080047B207C008B82C006C00573
:20140400120EC4D005D00680DCC3ED95745008E574C39DF574800775740080028E74A97697
:201424008D068E051EED6026B20920090A09E7C4540FFD8D6980078705740F5DF5698569BA
:2014440082C006C001120EE7D001D00680D4200103020F86AE748E051EED7003020F867583
:1A1464008220C006120EC4D00680EB8F82120EC4020F86856A82856B83224F
:0B16FE003C4E4F20464C4F41543E0034
:18147E00AA82AB831214966003A380F8C3E5829AF582E5839BF58322EA
:0D0051007581791214D0E582600302004E23
:1C14960020F71430F6148883A88220F507E6A88375830022E280F7E49322E02265
:0B14B200E4AC82FBFAF974860214C659
:1314BD00FCABF0AA83A982749EC2D1F582120CB7020E2804
:0414D00075820022FF
:2014D4007F9E12153E30D103020E49C3EF9582500974FFF5F0F583F5822279001214FB896B
:0714F400828A838BF0EC22D9
:2014FB006040F82582500274FFF582E824F8501ECCCBCAF9E4CC24F85014CBCAF9E4CB24F9
:20151B00F8500BCAF9E4CA24F8500379002224086010F8C3EC13FCEB13FBEA13FAE913F9AB
:03153B00D8F122C2
:12153E00AA82AB83A2F73392D1F5826002D2F7ACF022B2
:00000001FF
