:0400000002001132B7
:03000B000201737C
:08006A00E4F509F50A02000E9D
:03000E000200E904
:2000720075B1677E007F01EE24FFFCEF34FFFD8C068D07EC4D70F0E5B130E7FB75B288227F
:20009200759850758920758DDCD28E438E10438780D29943A4012275FFDE75FFAD120072FE
:2000B20012009243E10443E34022AF8210990280FB8F992210980280FB8599821200BC8521
:2000D2009982222098057582FF800BC2988599821200BC859982221200A97582201200BC69
:2000F20012015B12016174C3C0E07407C0E07480C0E01201A81581158115811200C685822A
:2001120008E4F58AF58CD28CE4F509F50AC3E50994A4E50A941F40F574EBC0E07407C0E0C8
:200132007480C0E01201A8158115811581C009C00A7405C0E07408C0E07480C0E01201A885
:20015200E58124FBF581809E22D2A943A88022438E085389F05389FCC28C758A00758C007F
:1201720022C0E0C0D00509E4B50902050AD0D0D0E032E6
:2007C30048697420616E79206B6579206F6E20746865206B6579626F61726420746F2073BB
:2007E30074617274200D0A0033207365636F6E64732068617665207061737365642E200D03
:1C0803000A004E756D626572206F66206F766572666C6F77733A2025640D0A0070
:06004000E478FFF6D8FD94
:20001E007900E94400601B7A0090082A780175AF00E493F2A308B8000205AFD9F4DAF27538
:02003E00AFFF12
:200046007800E84400600A790175AF00E4F309D8FC7800E84400600C7900900001E4F0A3A9
:04006600D8FCD9FAEF
:20018400C00C85810C1200BCD00C2285823185833285F033E4F52EF52FF530850B349001F2
:2001A4008402027FC00C85810CE50C24FBFF8F34E4F52EF52FF530E50C24FBF886310886E7
:0D01C4003208863390018412027FD00C2295
:2001D100AF82C024C025C0261201DE8007C022C0238F8222158115811581052CE4B52C0204
:2001F100052D22AF8274302FFF24C6500A74072FFF3000034307208F820201D1E582FFC4FE
:20021100540FF582C0071201F4D007740F5FF5820201F485820D85270E85280F8529108531
:200231002A11AA2B751220EA2AFAE511235401FF8A064EFAE50E250EF50EE50F33F50FE56A
:200251001033F510E51133F511C3EA950D4008EAC3950DFA430E01E51214FF8F1270C8857C
:200271000E27850F2885102985112A8A2B22858222858323852E24852F25853026E4F52C43
:20029100F52DAD31AE32AF338D828E838FF01207A3FC74012DF531E43EF5328F33ECFF7006
:2002B10003020784BF2502800302077CC201C202C203C204C205C206C207C208753500755C
:2002D10036007537FFAA31AB32AE338A828B838EF01207A3FFA3AA82AB838A318B328E330A
:2002F100BF25078F821201D18098BF3000402DEF24C6402874FFB53712E53675F00AA42F8A
:20031100FC24D0F53670C4D20280C0E53775F00AA4FC8F05ED2C24D0F53780AFBF2E0A74D7
:20033100FFB537A775370080A2BF6100400CEF248540075307DFD2008002C200BF20028051
:200351006DBF2B028063BF2D028059BF42028063BF43028068BF4403020522BF4603020579
:2003710038BF48030202DCBF4903020522BF4A030202DCBF4C028040BF4F03020529BF500D
:20039100030204B7BF5302805ABF54030202DCBF550302052EBF5803020533BF5A030202E8
:2003B100DC02053CD2010202DCD2030202DCD2040202DCD2060202DCD2070202DC30060A3E
:2003D100E53414F9893487078011E53424FEFE8E348E018705098706198D078F821201D1BC
:2003F100020545E53424FDFE8E348E01870409870509870619198C278D288E298C828D83F2
:200411008EF012078BAD82AE8374FFB537028D37200126C3ED95365020E536C39DF536AE9E
:20043100368E041EEC6010758220C006C0051201D1D005D00680EA8E36AE3785278285284A
:20045100838529F01207A3FCFF602F8E041EC374808CF063F08095F050208F82C006C005DD
:200471001201D1D005D006AA27AB28AC290ABA00010B8A278B288C2980C1200103020545C9
:20049100C3ED95364003020545E536C39DF536AE368E041EEC7003020543758220C006126F
:2004B10001D1D00680EBE53424FDFC8C348C01870209870309870419198A278B288C29ACEE
:2004D10029BC800040047F438014BC600040047F50800BBC400040047F4980027F588F82E0
:2004F100C0071201D175823A1201D17582301201D17582781201D1D007BF4902800BBF5052
:2005110002800685288212020D85278212020D8023D20575350A801C753508801775350ADC
:200531008012753510800DD20880098F821201D180028E3630085CE53424FCFE8E348E0117
:2005510087020987030987040987061919198A278B288C298E2A75271F7528087529808525
:20057100273985283A85293B74012539FAE4353AFCAE3B8A278C288E29853982853A838512
:200591003BF01207A3FEFF70030202938F821201D180CCE535700302029375381830062DCF
:2005B100E53414F9893487048C027B007C007E008A278B288C298E2A200566AA277B007C95
:2005D100007E008A278B288C298E2A8054300721E53424FCFE8E348E01870209870309875B
:2005F100040987061919198A278B288C298E2A8030E53424FEFE8E348E01870409870619C0
:20061100EE3395E0FBFA8C278E288B298A2A200510AA27AB287C007E008A278B288C298EF3
:200631002A300522E52A30E71BC3E49527FAE49528FBE49529FCE4952AFE8A278B288C2996
:200651008E2A8002C205D209A9387E00752B00853582C006C001120224D001D00620090BD8
:20067100E52BC4FCE7FB4CF7198002A72B0EB209E52745284529452A70D289388E05E53637
:200691007003753601200224200121ED04FEAC36C3EE9C5015758220C006C005C0041201A6
:2006B100D1D004D005D0061C80E68C3630050E75822DC0051201D1D00515368023ED602055
:2006D10030030E75822BC0051201D1D0051536800F30040C758220C0051201D1D00515362E
:2006F100200126AE368E041EC3ED9C502F3002067B307C0080047B207C008B82C006C005B1
:200711001201D1D005D00680DCC3ED95365008E536C39DF536800775360080028E36A9380B
:200731008D068E051EED6026B20920090A09E7C4540FFD8D2B80078705740F5DF52B852B74
:2007510082C006C0011201F4D001D00680D4200103020293AE368E051EED700302029375C1
:1A0771008220C0061201D1D00680EB8F821201D1020293852C82852D8322CB
:0B081F003C4E4F20464C4F41543E0021
:18078B00AA82AB831207A36003A380F8C3E5829AF582E5839BF58322EA
:0D00110075813B1207BFE582600302000EFF
:1C07A30020F71430F6148883A88220F507E6A88375830022E280F7E49322E02265
:0407BF00758200221D
:00000001FF
